{"contracts/StringHelper.sol":{"StringHelper":{"abi":[{"inputs":[{"internalType":"uint256","name":"v","type":"uint256"}],"name":"dec","outputs":[{"internalType":"string","name":"","type":"string"}],"stateMutability":"pure","type":"function"},{"inputs":[{"internalType":"string","name":"str","type":"string"}],"name":"enc","outputs":[{"internalType":"uint256","name":"","type":"uint256"}],"stateMutability":"pure","type":"function"},{"inputs":[{"internalType":"bytes","name":"buffer","type":"bytes"},{"internalType":"uint256","name":"index","type":"uint256"},{"internalType":"uint256","name":"v","type":"uint256"},{"internalType":"uint256","name":"start","type":"uint256"},{"internalType":"uint256","name":"count","type":"uint256"},{"internalType":"uint256","name":"charCase","type":"uint256"}],"name":"writeEncString","outputs":[{"internalType":"uint256","name":"","type":"uint256"}],"stateMutability":"pure","type":"function"}],"evm":{"bytecode":{"linkReferences":{},"object":"61057761003a600b82828239805160001a60731461002d57634e487b7160e01b600052600060045260246000fd5b30600052607381538281f3fe730000000000000000000000000000000000000000301460806040526004361061004b5760003560e01c8063120a58571461005057806375d8b11014610076578063c20efb9014610089575b600080fd5b61006361005e366004610388565b6100a9565b6040519081526020015b60405180910390f35b610063610084366004610401565b6101a8565b61009c610097366004610452565b61024d565b60405161006d919061046b565b6000806100b98560ff88166104cf565b9050838111156100c65750825b60036100d38660016104e8565b901b86901c95505b801561019c5760ff86166001841480156100f6575060618110155b80156101035750607a8111155b1561011a576101136020826104cf565b905061014b565b83600214801561012b575060418110155b80156101385750605a8111155b1561014b576101486020826104cf565b90505b8060f81b89898061015b906104fb565b9a508151811061016d5761016d610514565b60200101906001600160f81b031916908160001a90535060089690961c956101948261052a565b9150506100db565b50949695505050505050565b8051600090602081106102015760405162461bcd60e51b815260206004820152601c60248201527f537472696e6748656c7065723a737472696e6720746f6f206c6f6e6700000000604482015260640160405180910390fd5b60005b811561023c57836102148361052a565b9250828151811061022757610227610514565b60209101015160f81c60089190911b17610204565b8351600882901b1792505050919050565b600881901c9060609060ff1660008167ffffffffffffffff811115610274576102746102fc565b6040519080825280601f01601f19166020018201604052801561029e576020820181803683370190505b50905060005b828110156102f4578460ff1660f81b8282806102bf906104fb565b9350815181106102d1576102d1610514565b60200101906001600160f81b031916908160001a905350600885901c94506102a4565b509392505050565b634e487b7160e01b600052604160045260246000fd5b600067ffffffffffffffff8084111561032d5761032d6102fc565b604051601f8501601f19908116603f01168101908282118183101715610355576103556102fc565b8160405280935085815286868601111561036e57600080fd5b858560208301376000602087830101525050509392505050565b60008060008060008060c087890312156103a157600080fd5b863567ffffffffffffffff8111156103b857600080fd5b8701601f810189136103c957600080fd5b6103d889823560208401610312565b9960208901359950604089013598606081013598506080810135975060a0013595509350505050565b60006020828403121561041357600080fd5b813567ffffffffffffffff81111561042a57600080fd5b8201601f8101841361043b57600080fd5b61044a84823560208401610312565b949350505050565b60006020828403121561046457600080fd5b5035919050565b600060208083528351808285015260005b818110156104985785810183015185820160400152820161047c565b506000604082860101526040601f19601f8301168501019250505092915050565b634e487b7160e01b600052601160045260246000fd5b818103818111156104e2576104e26104b9565b92915050565b808201808211156104e2576104e26104b9565b60006001820161050d5761050d6104b9565b5060010190565b634e487b7160e01b600052603260045260246000fd5b600081610539576105396104b9565b50600019019056fea26469706673582212209f62908167a5ea11b7e8bcf620c75635785c0889905120575e91439065f40bd164736f6c63430008110033","opcodes":"PUSH2 0x577 PUSH2 0x3A PUSH1 0xB DUP3 DUP3 DUP3 CODECOPY DUP1 MLOAD PUSH1 0x0 BYTE PUSH1 0x73 EQ PUSH2 0x2D JUMPI PUSH4 0x4E487B71 PUSH1 0xE0 SHL PUSH1 0x0 MSTORE PUSH1 0x0 PUSH1 0x4 MSTORE PUSH1 0x24 PUSH1 0x0 REVERT JUMPDEST ADDRESS PUSH1 0x0 MSTORE PUSH1 0x73 DUP2 MSTORE8 DUP3 DUP2 RETURN INVALID PUSH20 0x0 ADDRESS EQ PUSH1 0x80 PUSH1 0x40 MSTORE PUSH1 0x4 CALLDATASIZE LT PUSH2 0x4B JUMPI PUSH1 0x0 CALLDATALOAD PUSH1 0xE0 SHR DUP1 PUSH4 0x120A5857 EQ PUSH2 0x50 JUMPI DUP1 PUSH4 0x75D8B110 EQ PUSH2 0x76 JUMPI DUP1 PUSH4 0xC20EFB90 EQ PUSH2 0x89 JUMPI JUMPDEST PUSH1 0x0 DUP1 REVERT JUMPDEST PUSH2 0x63 PUSH2 0x5E CALLDATASIZE PUSH1 0x4 PUSH2 0x388 JUMP JUMPDEST PUSH2 0xA9 JUMP JUMPDEST PUSH1 0x40 MLOAD SWAP1 DUP2 MSTORE PUSH1 0x20 ADD JUMPDEST PUSH1 0x40 MLOAD DUP1 SWAP2 SUB SWAP1 RETURN JUMPDEST PUSH2 0x63 PUSH2 0x84 CALLDATASIZE PUSH1 0x4 PUSH2 0x401 JUMP JUMPDEST PUSH2 0x1A8 JUMP JUMPDEST PUSH2 0x9C PUSH2 0x97 CALLDATASIZE PUSH1 0x4 PUSH2 0x452 JUMP JUMPDEST PUSH2 0x24D JUMP JUMPDEST PUSH1 0x40 MLOAD PUSH2 0x6D SWAP2 SWAP1 PUSH2 0x46B JUMP JUMPDEST PUSH1 0x0 DUP1 PUSH2 0xB9 DUP6 PUSH1 0xFF DUP9 AND PUSH2 0x4CF JUMP JUMPDEST SWAP1 POP DUP4 DUP2 GT ISZERO PUSH2 0xC6 JUMPI POP DUP3 JUMPDEST PUSH1 0x3 PUSH2 0xD3 DUP7 PUSH1 0x1 PUSH2 0x4E8 JUMP JUMPDEST SWAP1 SHL DUP7 SWAP1 SHR SWAP6 POP JUMPDEST DUP1 ISZERO PUSH2 0x19C JUMPI PUSH1 0xFF DUP7 AND PUSH1 0x1 DUP5 EQ DUP1 ISZERO PUSH2 0xF6 JUMPI POP PUSH1 0x61 DUP2 LT ISZERO JUMPDEST DUP1 ISZERO PUSH2 0x103 JUMPI POP PUSH1 0x7A DUP2 GT ISZERO JUMPDEST ISZERO PUSH2 0x11A JUMPI PUSH2 0x113 PUSH1 0x20 DUP3 PUSH2 0x4CF JUMP JUMPDEST SWAP1 POP PUSH2 0x14B JUMP JUMPDEST DUP4 PUSH1 0x2 EQ DUP1 ISZERO PUSH2 0x12B JUMPI POP PUSH1 0x41 DUP2 LT ISZERO JUMPDEST DUP1 ISZERO PUSH2 0x138 JUMPI POP PUSH1 0x5A DUP2 GT ISZERO JUMPDEST ISZERO PUSH2 0x14B JUMPI PUSH2 0x148 PUSH1 0x20 DUP3 PUSH2 0x4CF JUMP JUMPDEST SWAP1 POP JUMPDEST DUP1 PUSH1 0xF8 SHL DUP10 DUP10 DUP1 PUSH2 0x15B SWAP1 PUSH2 0x4FB JUMP JUMPDEST SWAP11 POP DUP2 MLOAD DUP2 LT PUSH2 0x16D JUMPI PUSH2 0x16D PUSH2 0x514 JUMP JUMPDEST PUSH1 0x20 ADD ADD SWAP1 PUSH1 0x1 PUSH1 0x1 PUSH1 0xF8 SHL SUB NOT AND SWAP1 DUP2 PUSH1 0x0 BYTE SWAP1 MSTORE8 POP PUSH1 0x8 SWAP7 SWAP1 SWAP7 SHR SWAP6 PUSH2 0x194 DUP3 PUSH2 0x52A JUMP JUMPDEST SWAP2 POP POP PUSH2 0xDB JUMP JUMPDEST POP SWAP5 SWAP7 SWAP6 POP POP POP POP POP POP JUMP JUMPDEST DUP1 MLOAD PUSH1 0x0 SWAP1 PUSH1 0x20 DUP2 LT PUSH2 0x201 JUMPI PUSH1 0x40 MLOAD PUSH3 0x461BCD PUSH1 0xE5 SHL DUP2 MSTORE PUSH1 0x20 PUSH1 0x4 DUP3 ADD MSTORE PUSH1 0x1C PUSH1 0x24 DUP3 ADD MSTORE PUSH32 0x537472696E6748656C7065723A737472696E6720746F6F206C6F6E6700000000 PUSH1 0x44 DUP3 ADD MSTORE PUSH1 0x64 ADD PUSH1 0x40 MLOAD DUP1 SWAP2 SUB SWAP1 REVERT JUMPDEST PUSH1 0x0 JUMPDEST DUP2 ISZERO PUSH2 0x23C JUMPI DUP4 PUSH2 0x214 DUP4 PUSH2 0x52A JUMP JUMPDEST SWAP3 POP DUP3 DUP2 MLOAD DUP2 LT PUSH2 0x227 JUMPI PUSH2 0x227 PUSH2 0x514 JUMP JUMPDEST PUSH1 0x20 SWAP2 ADD ADD MLOAD PUSH1 0xF8 SHR PUSH1 0x8 SWAP2 SWAP1 SWAP2 SHL OR PUSH2 0x204 JUMP JUMPDEST DUP4 MLOAD PUSH1 0x8 DUP3 SWAP1 SHL OR SWAP3 POP POP POP SWAP2 SWAP1 POP JUMP JUMPDEST PUSH1 0x8 DUP2 SWAP1 SHR SWAP1 PUSH1 0x60 SWAP1 PUSH1 0xFF AND PUSH1 0x0 DUP2 PUSH8 0xFFFFFFFFFFFFFFFF DUP2 GT ISZERO PUSH2 0x274 JUMPI PUSH2 0x274 PUSH2 0x2FC JUMP JUMPDEST PUSH1 0x40 MLOAD SWAP1 DUP1 DUP3 MSTORE DUP1 PUSH1 0x1F ADD PUSH1 0x1F NOT AND PUSH1 0x20 ADD DUP3 ADD PUSH1 0x40 MSTORE DUP1 ISZERO PUSH2 0x29E JUMPI PUSH1 0x20 DUP3 ADD DUP2 DUP1 CALLDATASIZE DUP4 CALLDATACOPY ADD SWAP1 POP JUMPDEST POP SWAP1 POP PUSH1 0x0 JUMPDEST DUP3 DUP2 LT ISZERO PUSH2 0x2F4 JUMPI DUP5 PUSH1 0xFF AND PUSH1 0xF8 SHL DUP3 DUP3 DUP1 PUSH2 0x2BF SWAP1 PUSH2 0x4FB JUMP JUMPDEST SWAP4 POP DUP2 MLOAD DUP2 LT PUSH2 0x2D1 JUMPI PUSH2 0x2D1 PUSH2 0x514 JUMP JUMPDEST PUSH1 0x20 ADD ADD SWAP1 PUSH1 0x1 PUSH1 0x1 PUSH1 0xF8 SHL SUB NOT AND SWAP1 DUP2 PUSH1 0x0 BYTE SWAP1 MSTORE8 POP PUSH1 0x8 DUP6 SWAP1 SHR SWAP5 POP PUSH2 0x2A4 JUMP JUMPDEST POP SWAP4 SWAP3 POP POP POP JUMP JUMPDEST PUSH4 0x4E487B71 PUSH1 0xE0 SHL PUSH1 0x0 MSTORE PUSH1 0x41 PUSH1 0x4 MSTORE PUSH1 0x24 PUSH1 0x0 REVERT JUMPDEST PUSH1 0x0 PUSH8 0xFFFFFFFFFFFFFFFF DUP1 DUP5 GT ISZERO PUSH2 0x32D JUMPI PUSH2 0x32D PUSH2 0x2FC JUMP JUMPDEST PUSH1 0x40 MLOAD PUSH1 0x1F DUP6 ADD PUSH1 0x1F NOT SWAP1 DUP2 AND PUSH1 0x3F ADD AND DUP2 ADD SWAP1 DUP3 DUP3 GT DUP2 DUP4 LT OR ISZERO PUSH2 0x355 JUMPI PUSH2 0x355 PUSH2 0x2FC JUMP JUMPDEST DUP2 PUSH1 0x40 MSTORE DUP1 SWAP4 POP DUP6 DUP2 MSTORE DUP7 DUP7 DUP7 ADD GT ISZERO PUSH2 0x36E JUMPI PUSH1 0x0 DUP1 REVERT JUMPDEST DUP6 DUP6 PUSH1 0x20 DUP4 ADD CALLDATACOPY PUSH1 0x0 PUSH1 0x20 DUP8 DUP4 ADD ADD MSTORE POP POP POP SWAP4 SWAP3 POP POP POP JUMP JUMPDEST PUSH1 0x0 DUP1 PUSH1 0x0 DUP1 PUSH1 0x0 DUP1 PUSH1 0xC0 DUP8 DUP10 SUB SLT ISZERO PUSH2 0x3A1 JUMPI PUSH1 0x0 DUP1 REVERT JUMPDEST DUP7 CALLDATALOAD PUSH8 0xFFFFFFFFFFFFFFFF DUP2 GT ISZERO PUSH2 0x3B8 JUMPI PUSH1 0x0 DUP1 REVERT JUMPDEST DUP8 ADD PUSH1 0x1F DUP2 ADD DUP10 SGT PUSH2 0x3C9 JUMPI PUSH1 0x0 DUP1 REVERT JUMPDEST PUSH2 0x3D8 DUP10 DUP3 CALLDATALOAD PUSH1 0x20 DUP5 ADD PUSH2 0x312 JUMP JUMPDEST SWAP10 PUSH1 0x20 DUP10 ADD CALLDATALOAD SWAP10 POP PUSH1 0x40 DUP10 ADD CALLDATALOAD SWAP9 PUSH1 0x60 DUP2 ADD CALLDATALOAD SWAP9 POP PUSH1 0x80 DUP2 ADD CALLDATALOAD SWAP8 POP PUSH1 0xA0 ADD CALLDATALOAD SWAP6 POP SWAP4 POP POP POP POP JUMP JUMPDEST PUSH1 0x0 PUSH1 0x20 DUP3 DUP5 SUB SLT ISZERO PUSH2 0x413 JUMPI PUSH1 0x0 DUP1 REVERT JUMPDEST DUP2 CALLDATALOAD PUSH8 0xFFFFFFFFFFFFFFFF DUP2 GT ISZERO PUSH2 0x42A JUMPI PUSH1 0x0 DUP1 REVERT JUMPDEST DUP3 ADD PUSH1 0x1F DUP2 ADD DUP5 SGT PUSH2 0x43B JUMPI PUSH1 0x0 DUP1 REVERT JUMPDEST PUSH2 0x44A DUP5 DUP3 CALLDATALOAD PUSH1 0x20 DUP5 ADD PUSH2 0x312 JUMP JUMPDEST SWAP5 SWAP4 POP POP POP POP JUMP JUMPDEST PUSH1 0x0 PUSH1 0x20 DUP3 DUP5 SUB SLT ISZERO PUSH2 0x464 JUMPI PUSH1 0x0 DUP1 REVERT JUMPDEST POP CALLDATALOAD SWAP2 SWAP1 POP JUMP JUMPDEST PUSH1 0x0 PUSH1 0x20 DUP1 DUP4 MSTORE DUP4 MLOAD DUP1 DUP3 DUP6 ADD MSTORE PUSH1 0x0 JUMPDEST DUP2 DUP2 LT ISZERO PUSH2 0x498 JUMPI DUP6 DUP2 ADD DUP4 ADD MLOAD DUP6 DUP3 ADD PUSH1 0x40 ADD MSTORE DUP3 ADD PUSH2 0x47C JUMP JUMPDEST POP PUSH1 0x0 PUSH1 0x40 DUP3 DUP7 ADD ADD MSTORE PUSH1 0x40 PUSH1 0x1F NOT PUSH1 0x1F DUP4 ADD AND DUP6 ADD ADD SWAP3 POP POP POP SWAP3 SWAP2 POP POP JUMP JUMPDEST PUSH4 0x4E487B71 PUSH1 0xE0 SHL PUSH1 0x0 MSTORE PUSH1 0x11 PUSH1 0x4 MSTORE PUSH1 0x24 PUSH1 0x0 REVERT JUMPDEST DUP2 DUP2 SUB DUP2 DUP2 GT ISZERO PUSH2 0x4E2 JUMPI PUSH2 0x4E2 PUSH2 0x4B9 JUMP JUMPDEST SWAP3 SWAP2 POP POP JUMP JUMPDEST DUP1 DUP3 ADD DUP1 DUP3 GT ISZERO PUSH2 0x4E2 JUMPI PUSH2 0x4E2 PUSH2 0x4B9 JUMP JUMPDEST PUSH1 0x0 PUSH1 0x1 DUP3 ADD PUSH2 0x50D JUMPI PUSH2 0x50D PUSH2 0x4B9 JUMP JUMPDEST POP PUSH1 0x1 ADD SWAP1 JUMP JUMPDEST PUSH4 0x4E487B71 PUSH1 0xE0 SHL PUSH1 0x0 MSTORE PUSH1 0x32 PUSH1 0x4 MSTORE PUSH1 0x24 PUSH1 0x0 REVERT JUMPDEST PUSH1 0x0 DUP2 PUSH2 0x539 JUMPI PUSH2 0x539 PUSH2 0x4B9 JUMP JUMPDEST POP PUSH1 0x0 NOT ADD SWAP1 JUMP INVALID LOG2 PUSH5 0x6970667358 0x22 SLT KECCAK256 SWAP16 PUSH3 0x908167 0xA5 0xEA GT 0xB7 0xE8 0xBC 0xF6 KECCAK256 0xC7 JUMP CALLDATALOAD PUSH25 0x5C0889905120575E91439065F40BD164736F6C634300081100 CALLER "},"methodIdentifiers":{"dec(uint256)":"c20efb90","enc(string)":"75d8b110","writeEncString(bytes,uint256,uint256,uint256,uint256,uint256)":"120a5857"}}}}}