{
  "_format": "hh-sol-artifact-1",
  "contractName": "StringHelper",
  "sourceName": "contracts/StringHelper.sol",
  "abi": [
    {
      "inputs": [
        {
          "internalType": "uint256",
          "name": "v",
          "type": "uint256"
        }
      ],
      "name": "dec",
      "outputs": [
        {
          "internalType": "string",
          "name": "",
          "type": "string"
        }
      ],
      "stateMutability": "pure",
      "type": "function"
    },
    {
      "inputs": [
        {
          "internalType": "string",
          "name": "str",
          "type": "string"
        }
      ],
      "name": "enc",
      "outputs": [
        {
          "internalType": "uint256",
          "name": "",
          "type": "uint256"
        }
      ],
      "stateMutability": "pure",
      "type": "function"
    },
    {
      "inputs": [
        {
          "internalType": "bytes",
          "name": "buffer",
          "type": "bytes"
        },
        {
          "internalType": "uint256",
          "name": "index",
          "type": "uint256"
        },
        {
          "internalType": "uint256",
          "name": "v",
          "type": "uint256"
        },
        {
          "internalType": "uint256",
          "name": "start",
          "type": "uint256"
        },
        {
          "internalType": "uint256",
          "name": "count",
          "type": "uint256"
        },
        {
          "internalType": "uint256",
          "name": "charCase",
          "type": "uint256"
        }
      ],
      "name": "writeEncString",
      "outputs": [
        {
          "internalType": "uint256",
          "name": "",
          "type": "uint256"
        }
      ],
      "stateMutability": "pure",
      "type": "function"
    }
  ],
  "bytecode": "0x61057761003a600b82828239805160001a60731461002d57634e487b7160e01b600052600060045260246000fd5b30600052607381538281f3fe730000000000000000000000000000000000000000301460806040526004361061004b5760003560e01c8063120a58571461005057806375d8b11014610076578063c20efb9014610089575b600080fd5b61006361005e366004610388565b6100a9565b6040519081526020015b60405180910390f35b610063610084366004610401565b6101a8565b61009c610097366004610452565b61024d565b60405161006d919061046b565b6000806100b98560ff88166104cf565b9050838111156100c65750825b60036100d38660016104e8565b901b86901c95505b801561019c5760ff86166001841480156100f6575060618110155b80156101035750607a8111155b1561011a576101136020826104cf565b905061014b565b83600214801561012b575060418110155b80156101385750605a8111155b1561014b576101486020826104cf565b90505b8060f81b89898061015b906104fb565b9a508151811061016d5761016d610514565b60200101906001600160f81b031916908160001a90535060089690961c956101948261052a565b9150506100db565b50949695505050505050565b8051600090602081106102015760405162461bcd60e51b815260206004820152601c60248201527f537472696e6748656c7065723a737472696e6720746f6f206c6f6e6700000000604482015260640160405180910390fd5b60005b811561023c57836102148361052a565b9250828151811061022757610227610514565b60209101015160f81c60089190911b17610204565b8351600882901b1792505050919050565b600881901c9060609060ff1660008167ffffffffffffffff811115610274576102746102fc565b6040519080825280601f01601f19166020018201604052801561029e576020820181803683370190505b50905060005b828110156102f4578460ff1660f81b8282806102bf906104fb565b9350815181106102d1576102d1610514565b60200101906001600160f81b031916908160001a905350600885901c94506102a4565b509392505050565b634e487b7160e01b600052604160045260246000fd5b600067ffffffffffffffff8084111561032d5761032d6102fc565b604051601f8501601f19908116603f01168101908282118183101715610355576103556102fc565b8160405280935085815286868601111561036e57600080fd5b858560208301376000602087830101525050509392505050565b60008060008060008060c087890312156103a157600080fd5b863567ffffffffffffffff8111156103b857600080fd5b8701601f810189136103c957600080fd5b6103d889823560208401610312565b9960208901359950604089013598606081013598506080810135975060a0013595509350505050565b60006020828403121561041357600080fd5b813567ffffffffffffffff81111561042a57600080fd5b8201601f8101841361043b57600080fd5b61044a84823560208401610312565b949350505050565b60006020828403121561046457600080fd5b5035919050565b600060208083528351808285015260005b818110156104985785810183015185820160400152820161047c565b506000604082860101526040601f19601f8301168501019250505092915050565b634e487b7160e01b600052601160045260246000fd5b818103818111156104e2576104e26104b9565b92915050565b808201808211156104e2576104e26104b9565b60006001820161050d5761050d6104b9565b5060010190565b634e487b7160e01b600052603260045260246000fd5b600081610539576105396104b9565b50600019019056fea26469706673582212209f62908167a5ea11b7e8bcf620c75635785c0889905120575e91439065f40bd164736f6c63430008110033",
  "linkReferences": {},
  "deployedLinkReferences": {}
}