{
  "_format": "hh-sol-artifact-1",
  "contractName": "DonationAndVotingSystemContract",
  "sourceName": "contracts/DonationAndVotingSystemContract.sol",
  "abi": [
    {
      "inputs": [
        {
          "internalType": "uint256",
          "name": "maxVotingTimes",
          "type": "uint256"
        },
        {
          "internalType": "uint256",
          "name": "goldConsumedByDonation",
          "type": "uint256"
        },
        {
          "internalType": "uint256",
          "name": "goldConsumedByVote",
          "type": "uint256"
        },
        {
          "internalType": "uint256",
          "name": "initIalUserGold",
          "type": "uint256"
        }
      ],
      "stateMutability": "nonpayable",
      "type": "constructor"
    },
    {
      "inputs": [
        {
          "internalType": "string",
          "name": "content",
          "type": "string"
        },
        {
          "internalType": "uint256",
          "name": "startTime",
          "type": "uint256"
        },
        {
          "internalType": "uint256",
          "name": "endTime",
          "type": "uint256"
        }
      ],
      "name": "addNewDonation",
      "outputs": [],
      "stateMutability": "nonpayable",
      "type": "function"
    },
    {
      "inputs": [],
      "name": "awards",
      "outputs": [
        {
          "internalType": "contract AwardContract",
          "name": "",
          "type": "address"
        }
      ],
      "stateMutability": "view",
      "type": "function"
    },
    {
      "inputs": [],
      "name": "getAward",
      "outputs": [],
      "stateMutability": "nonpayable",
      "type": "function"
    },
    {
      "inputs": [],
      "name": "getDonationIds",
      "outputs": [
        {
          "internalType": "uint256[]",
          "name": "",
          "type": "uint256[]"
        }
      ],
      "stateMutability": "view",
      "type": "function"
    },
    {
      "inputs": [
        {
          "internalType": "uint256",
          "name": "id",
          "type": "uint256"
        },
        {
          "internalType": "uint256",
          "name": "timeNow",
          "type": "uint256"
        }
      ],
      "name": "getDonationInformation",
      "outputs": [
        {
          "internalType": "string",
          "name": "",
          "type": "string"
        },
        {
          "internalType": "address",
          "name": "",
          "type": "address"
        },
        {
          "internalType": "uint256",
          "name": "",
          "type": "uint256"
        },
        {
          "internalType": "uint256",
          "name": "",
          "type": "uint256"
        },
        {
          "internalType": "uint256",
          "name": "",
          "type": "uint256"
        }
      ],
      "stateMutability": "view",
      "type": "function"
    },
    {
      "inputs": [
        {
          "internalType": "uint256",
          "name": "id",
          "type": "uint256"
        },
        {
          "internalType": "uint256",
          "name": "timeNow",
          "type": "uint256"
        }
      ],
      "name": "getDonationStatus",
      "outputs": [
        {
          "internalType": "enum DonationAndVotingSystemContract.DonationStatus",
          "name": "",
          "type": "uint8"
        }
      ],
      "stateMutability": "view",
      "type": "function"
    },
    {
      "inputs": [
        {
          "internalType": "uint256",
          "name": "id",
          "type": "uint256"
        }
      ],
      "name": "getDonationStatus",
      "outputs": [
        {
          "internalType": "enum DonationAndVotingSystemContract.DonationStatus",
          "name": "",
          "type": "uint8"
        }
      ],
      "stateMutability": "view",
      "type": "function"
    },
    {
      "inputs": [
        {
          "internalType": "uint256",
          "name": "id",
          "type": "uint256"
        },
        {
          "internalType": "uint256",
          "name": "timeNow",
          "type": "uint256"
        }
      ],
      "name": "getDonationVotesInformation",
      "outputs": [
        {
          "internalType": "uint256[]",
          "name": "",
          "type": "uint256[]"
        },
        {
          "internalType": "uint256[]",
          "name": "",
          "type": "uint256[]"
        },
        {
          "internalType": "address[]",
          "name": "",
          "type": "address[]"
        }
      ],
      "stateMutability": "view",
      "type": "function"
    },
    {
      "inputs": [],
      "name": "getGoldConsumedByDonation",
      "outputs": [
        {
          "internalType": "uint256",
          "name": "",
          "type": "uint256"
        }
      ],
      "stateMutability": "view",
      "type": "function"
    },
    {
      "inputs": [],
      "name": "getGoldConsumedByVote",
      "outputs": [
        {
          "internalType": "uint256",
          "name": "",
          "type": "uint256"
        }
      ],
      "stateMutability": "view",
      "type": "function"
    },
    {
      "inputs": [
        {
          "internalType": "uint256",
          "name": "id",
          "type": "uint256"
        }
      ],
      "name": "getGoldRewardFromDonationApproved",
      "outputs": [],
      "stateMutability": "nonpayable",
      "type": "function"
    },
    {
      "inputs": [],
      "name": "getMaxVotingTimes",
      "outputs": [
        {
          "internalType": "uint256",
          "name": "",
          "type": "uint256"
        }
      ],
      "stateMutability": "view",
      "type": "function"
    },
    {
      "inputs": [],
      "name": "getUserAddresses",
      "outputs": [
        {
          "internalType": "address[]",
          "name": "",
          "type": "address[]"
        }
      ],
      "stateMutability": "view",
      "type": "function"
    },
    {
      "inputs": [],
      "name": "getUserDonationIds",
      "outputs": [
        {
          "internalType": "uint256[]",
          "name": "",
          "type": "uint256[]"
        }
      ],
      "stateMutability": "view",
      "type": "function"
    },
    {
      "inputs": [],
      "name": "getUserVotesInformation",
      "outputs": [
        {
          "internalType": "uint256[]",
          "name": "",
          "type": "uint256[]"
        },
        {
          "internalType": "uint256[]",
          "name": "",
          "type": "uint256[]"
        },
        {
          "internalType": "uint256[]",
          "name": "",
          "type": "uint256[]"
        }
      ],
      "stateMutability": "view",
      "type": "function"
    },
    {
      "inputs": [
        {
          "internalType": "uint256",
          "name": "timeNow",
          "type": "uint256"
        }
      ],
      "name": "getWhetherUserCanGetAwardReward",
      "outputs": [
        {
          "internalType": "bool",
          "name": "",
          "type": "bool"
        }
      ],
      "stateMutability": "view",
      "type": "function"
    },
    {
      "inputs": [
        {
          "internalType": "uint256",
          "name": "id",
          "type": "uint256"
        },
        {
          "internalType": "uint256",
          "name": "timeNow",
          "type": "uint256"
        }
      ],
      "name": "getWhetherUserCanGetGoldReward",
      "outputs": [
        {
          "internalType": "bool",
          "name": "",
          "type": "bool"
        }
      ],
      "stateMutability": "view",
      "type": "function"
    },
    {
      "inputs": [],
      "name": "gold",
      "outputs": [
        {
          "internalType": "contract GoldContract",
          "name": "",
          "type": "address"
        }
      ],
      "stateMutability": "view",
      "type": "function"
    },
    {
      "inputs": [
        {
          "internalType": "uint256",
          "name": "userVote",
          "type": "uint256"
        },
        {
          "internalType": "uint256",
          "name": "id",
          "type": "uint256"
        }
      ],
      "name": "voteOnDonation",
      "outputs": [],
      "stateMutability": "nonpayable",
      "type": "function"
    }
  ],
  "bytecode": "0x60806040523480156200001157600080fd5b50604051620063df380380620063df833981016040819052620000349162000181565b6002839055600684905560078290556040518190620000539062000165565b60608082526008908201526723b7b63221b7b4b760c11b608082015260a0602082018190526004908201526319dbdb1960e21b60c0820152604081019190915260e001604051809103906000f080158015620000b3573d6000803e3d6000fd5b50600880546001600160a01b0319166001600160a01b0392909216919091179055604051620000e29062000173565b604080825260069082018190526541776172647360d01b60608301526080602083018190528201526561776172647360d01b60a082015260c001604051809103906000f08015801562000139573d6000803e3d6000fd5b50600980546001600160a01b0319166001600160a01b039290921691909117905550620001b892505050565b610d5580620037d583390190565b611eb5806200452a83390190565b600080600080608085870312156200019857600080fd5b505082516020840151604085015160609095015191969095509092509050565b61360d80620001c86000396000f3fe608060405234801561001057600080fd5b50600436106101215760003560e01c8063a591efde116100ad578063c23ea93311610071578063c23ea9331461026e578063c6629f3f14610285578063d2c4872b14610298578063fbec6f21146102ab578063fee50359146102be57600080fd5b8063a591efde146101fe578063a7ebbb3314610213578063ada4365914610233578063bea0fa2f1461025e578063c085c2201461026657600080fd5b806358c7fe35116100f457806358c7fe351461018b5780636259c57e146101ad5780638af7d8b7146101bf5780638d721a4e146101e35780639fcadec6146101eb57600080fd5b8063021338891461012657806303fb7cda1461013b5780633bbeb2cf1461016357806350a1e4cc14610176575b600080fd5b610139610134366004612ef6565b6102c6565b005b61014e610149366004612f75565b610764565b60405190151581526020015b60405180910390f35b610139610171366004612f75565b6108d8565b61017e610bb0565b60405161015a9190612fc9565b61019e610199366004612fdc565b610d2f565b60405161015a93929190613037565b6007545b60405190815260200161015a565b6101d26101cd366004612fdc565b61128f565b60405161015a9594939291906130b6565b61017e6113cf565b61014e6101f9366004612fdc565b61142a565b6102066114e2565b60405161015a91906130f6565b610226610221366004612fdc565b611546565b60405161015a919061311f565b600954610246906001600160a01b031681565b6040516001600160a01b03909116815260200161015a565b6002546101b1565b6006546101b1565b6102766117ab565b60405161015a93929190613147565b610226610293366004612f75565b611c1d565b6101396102a6366004612fdc565b611e88565b600854610246906001600160a01b031681565b61013961230b565b80821061032d5760405162461bcd60e51b815260206004820152602a60248201527fe682a8e5b7b2e5bc80e5a78be697b6e997b4e5bf85e9a1bbe5b08fe4ba8ee7bb60448201526924f9a767f9a5edba65ed60b21b60648201526084015b60405180910390fd5b42811161037c5760405162461bcd60e51b815260206004820152601b60248201527fe7bb93e69d9fe697b6e997b4e5bf85e9a1bbe59ca8e69caae69da500000000006044820152606401610324565b6002546008546040516370a0823160e01b81523360048201526001600160a01b03909116906370a0823190602401602060405180830381865afa1580156103c7573d6000803e3d6000fd5b505050506040513d601f19601f820116820180604052508101906103eb9190613180565b10156104495760405162461bcd60e51b815260206004820152602760248201527fe4bd99e9a29de4b88de8b6b3efbc8ce697a0e6b395e68f90e8b5b7e696b0e79a6044820152660427346c8745ad60cd1b6064820152608401610324565b600254600854604051636eb1769f60e11b81523360048201523060248201526001600160a01b039091169063dd62ed3e90604401602060405180830381865afa15801561049a573d6000803e3d6000fd5b505050506040513d601f19601f820116820180604052508101906104be9190613180565b10156104e65760405162461bcd60e51b81526020600482015260006024820152604401610324565b6008546002546040516323b872dd60e01b815233600482015230602482015260448101919091526001600160a01b03909116906323b872dd906064016020604051808303816000875af1158015610541573d6000803e3d6000fd5b505050506040513d601f19601f820116820180604052508101906105659190613199565b50600061057160035490565b905060006040518060e0016040528083815260200187878080601f016020809104026020016040519081016040528093929190818152602001838380828437600092018290525093855250503360208085019190915260408085018a90526060850189905260808501849052600160a090950185905287845283825290922084518155918401519394508493919283019161060d915082613259565b5060408201516002820180546001600160a01b0319166001600160a01b0390921691909117905560608201516003808301919091556080830151600483015560a08301516005909201805460c09094015161ffff1990941692151561ff001916929092176101009315159390930292909217905560018054808201825560008290527fb10e2d527612073b26eecdfd717e6a320cf44b4afac2b0732d9fcbe2b7fa0cf60184905581540190556000805b6005548210156107125760058054339190849081106106de576106de613319565b6000918252602090912001546001600160a01b03160361070057506001610712565b8161070a81613345565b9250506106bd565b8061075a57600580546001810182556000919091527f036b6384b5eca791c62761152d0c79bb0604c104a5fb6f4eb0703f3154bb3db00180546001600160a01b031916331790555b5050505050505050565b60008061076f610bb0565b90506000805b82518210156107d95760026107a384848151811061079557610795613319565b602002602001015187611546565b60038111156107b4576107b4613109565b036107c757806107c381613345565b9150505b816107d181613345565b925050610775565b600381106108cd5760006107ee600383613374565b905060015b8181116108c057600954604080516060810190915260308082526001600160a01b039092169163a12b1d3791339161083e91906135a86020830139610839866003613388565b612511565b6040518363ffffffff1660e01b815260040161085b92919061339f565b602060405180830381865afa158015610878573d6000803e3d6000fd5b505050506040513d601f19601f8201168201806040525081019061089c9190613199565b156108ae575060019695505050505050565b806108b881613345565b9150506107f3565b5060009695505050505050565b506000949350505050565b6108e2814261142a565b15156001146109035760405162461bcd60e51b8152600401610324906133cb565b6000818152602081905260408120600501805460ff1916600117905580805b600554811015610aeb576000600460000160006004600101848154811061094b5761094b613319565b60009182526020808320909101546001600160a01b0316835282810193909352604091820181208882528352818120805483518186028101860190945280845292939092919084015b82821015610a36576000848152602090206040805160808101909152600384029091018054829060ff1660018111156109cf576109cf613109565b60018111156109e0576109e0613109565b81526020016000820160019054906101000a90046001600160a01b03166001600160a01b03166001600160a01b031681526020016001820154815260200160028201548152505081526020019060010190610994565b505050509050600081511115610ad85760008160018351610a57919061341b565b81518110610a6757610a67613319565b6020026020010151905060006001811115610a8457610a84613109565b81516001811115610a9757610a97613109565b03610aae5784610aa681613345565b955050610ad6565b600181516001811115610ac357610ac3613109565b03610ad65783610ad281613345565b9450505b505b5080610ae381613345565b915050610922565b600854600085815260208190526040902060029081015490546007546001600160a01b039384169363a9059cbb93169190610b26878961342e565b610b309190613388565b610b3a919061342e565b6040516001600160e01b031960e085901b1681526001600160a01b03909216600483015260248201526044016020604051808303816000875af1158015610b85573d6000803e3d6000fd5b505050506040513d601f19601f82011682018060405250810190610ba99190613199565b5050505050565b60606000805b600154811015610c295760018054339160009182919085908110610bdc57610bdc613319565b600091825260208083209091015483528201929092526040019020600201546001600160a01b031603610c175781610c1381613345565b9250505b80610c2181613345565b915050610bb6565b60008267ffffffffffffffff811115610c4457610c446131bb565b604051908082528060200260200182016040528015610c6d578160200160208202803683370190505b50905060009250600091505b600154821015610d285760018054339160009182919086908110610c9f57610c9f613319565b600091825260208083209091015483528201929092526040019020600201546001600160a01b031603610d16576001805483908110610ce057610ce0613319565b9060005260206000200154818481518110610cfd57610cfd613319565b602090810291909101015282610d1281613345565b9350505b81610d2081613345565b925050610c79565b9392505050565b606080806000805b600554821015610e7c5760006004600001600060046001018581548110610d6057610d60613319565b60009182526020808320909101546001600160a01b0316835282810193909352604091820181208b82528352818120805483518186028101860190945280845292939092919084015b82821015610e4b576000848152602090206040805160808101909152600384029091018054829060ff166001811115610de457610de4613109565b6001811115610df557610df5613109565b81526020016000820160019054906101000a90046001600160a01b03166001600160a01b03166001600160a01b031681526020016001820154815260200160028201548152505081526020019060010190610da9565b505050509050600081511115610e695781610e6581613345565b9250505b5081610e7481613345565b925050610d37565b60008167ffffffffffffffff811115610e9757610e976131bb565b604051908082528060200260200182016040528015610ec0578160200160208202803683370190505b50905060008267ffffffffffffffff811115610ede57610ede6131bb565b604051908082528060200260200182016040528015610f07578160200160208202803683370190505b50905060008367ffffffffffffffff811115610f2557610f256131bb565b604051908082528060200260200182016040528015610f4e578160200160208202803683370190505b50905060009350600094505b6005548510156111975760006004600001600060046001018881548110610f8357610f83613319565b60009182526020808320909101546001600160a01b0316835282810193909352604091820181208e82528352818120805483518186028101860190945280845292939092919084015b8282101561106e576000848152602090206040805160808101909152600384029091018054829060ff16600181111561100757611007613109565b600181111561101857611018613109565b81526020016000820160019054906101000a90046001600160a01b03166001600160a01b03166001600160a01b031681526020016001820154815260200160028201548152505081526020019060010190610fcc565b50505050905060008151111561118457806001825161108d919061341b565b8151811061109d5761109d613319565b60200260200101516000015160018111156110ba576110ba613109565b8486815181106110cc576110cc613319565b60200260200101818152505080600182516110e7919061341b565b815181106110f7576110f7613319565b60200260200101516040015183868151811061111557611115613319565b6020026020010181815250508060018251611130919061341b565b8151811061114057611140613319565b60200260200101516020015182868151811061115e5761115e613319565b6001600160a01b03909216602092830291909101909101528461118081613345565b9550505b508461118f81613345565b955050610f5a565b60008a8152602081905260409020600201546001600160a01b03163314806111da575060006111c68b8b611546565b60038111156111d7576111d7613109565b14155b156111ee5791965094509250611288915050565b8367ffffffffffffffff811115611207576112076131bb565b604051908082528060200260200182016040528015611230578160200160208202803683370190505b5091508367ffffffffffffffff81111561124c5761124c6131bb565b604051908082528060200260200182016040528015611275578160200160208202803683370190505b5092975090955090935061128892505050565b9250925092565b6000828152602081905260408120600501546060919081908190819060ff6101009091041615156001146112d55760405162461bcd60e51b815260040161032490613441565b60006112e18888611546565b60038111156112f2576112f2613109565b600089815260208190526040812060010180549293509091611313906131d1565b80601f016020809104026020016040519081016040528092919081815260200182805461133f906131d1565b801561138c5780601f106113615761010080835404028352916020019161138c565b820191906000526020600020905b81548152906001019060200180831161136f57829003601f168201915b50505060009b8c52505060208a90526040909920600281015460038201546004909201549a9b6001600160a01b039091169a919950909750919550909350505050565b6060600060010180548060200260200160405190810160405280929190818152602001828054801561142057602002820191906000526020600020905b81548152602001906001019080831161140c575b5050505050905090565b60008281526020819052604081206005015460ff6101009091041615156001146114665760405162461bcd60e51b815260040161032490613441565b6000838152602081905260409020600201546001600160a01b0316331461148f575060006114dc565b600261149b8484611546565b60038111156114ac576114ac613109565b1480156114cb575060008381526020819052604090206005015460ff16155b156114d8575060016114dc565b5060005b92915050565b6060600460010180548060200260200160405190810160405280929190818152602001828054801561142057602002820191906000526020600020905b81546001600160a01b0316815260019091019060200180831161151f575050505050905090565b60008281526020819052604081206005015460ff6101009091041615156001146115825760405162461bcd60e51b815260040161032490613441565b60008381526020819052604090206004015482111561178a5760008060005b60055481101561176a57600060046000016000600460010184815481106115ca576115ca613319565b60009182526020808320909101546001600160a01b0316835282810193909352604091820181208a82528352818120805483518186028101860190945280845292939092919084015b828210156116b5576000848152602090206040805160808101909152600384029091018054829060ff16600181111561164e5761164e613109565b600181111561165f5761165f613109565b81526020016000820160019054906101000a90046001600160a01b03166001600160a01b03166001600160a01b031681526020016001820154815260200160028201548152505081526020019060010190611613565b50505050905060008151111561175757600081600183516116d6919061341b565b815181106116e6576116e6613319565b602002602001015190506000600181111561170357611703613109565b8151600181111561171657611716613109565b0361172d578461172581613345565b955050611755565b60018151600181111561174257611742613109565b03611755578361175181613345565b9450505b505b508061176281613345565b9150506115a1565b8183111561177e57600293505050506114dc565b600193505050506114dc565b6000838152602081905260409020600301548210156114d8575060036114dc565b60608080600080805b6001548310156119105733600090815260046020526040812060018054839190879081106117e4576117e4613319565b90600052602060002001548152602001908152602001600020805480602002602001604051908101604052809291908181526020016000905b828210156118bf576000848152602090206040805160808101909152600384029091018054829060ff16600181111561185857611858613109565b600181111561186957611869613109565b81526020016000820160019054906101000a90046001600160a01b03166001600160a01b03166001600160a01b03168152602001600182015481526020016002820154815250508152602001906001019061181d565b5050505090506000815111156118fd57600092505b80518310156118fd57816118e781613345565b92505082806118f590613345565b9350506118d4565b508261190881613345565b9350506117b4565b60008167ffffffffffffffff81111561192b5761192b6131bb565b604051908082528060200260200182016040528015611954578160200160208202803683370190505b50905060008267ffffffffffffffff811115611972576119726131bb565b60405190808252806020026020018201604052801561199b578160200160208202803683370190505b50905060008367ffffffffffffffff8111156119b9576119b96131bb565b6040519080825280602002602001820160405280156119e2578160200160208202803683370190505b50905060009350600095505b600154861015611c0e57336000908152600460205260408120600180548391908a908110611a1e57611a1e613319565b90600052602060002001548152602001908152602001600020805480602002602001604051908101604052809291908181526020016000905b82821015611af9576000848152602090206040805160808101909152600384029091018054829060ff166001811115611a9257611a92613109565b6001811115611aa357611aa3613109565b81526020016000820160019054906101000a90046001600160a01b03166001600160a01b03166001600160a01b031681526020016001820154815260200160028201548152505081526020019060010190611a57565b505050509050600081511115611bfb57600095505b8051861015611bfb57808681518110611b2957611b29613319565b6020026020010151600001516001811115611b4657611b46613109565b848681518110611b5857611b58613319565b602002602001018181525050808681518110611b7657611b76613319565b602002602001015160400151838681518110611b9457611b94613319565b602002602001018181525050808681518110611bb257611bb2613319565b602002602001015160600151828681518110611bd057611bd0613319565b602090810291909101015284611be581613345565b9550508580611bf390613345565b965050611b0e565b5085611c0681613345565b9650506119ee565b91989097509095509350505050565b60008181526020819052604081206005015460ff610100909104161515600114611c595760405162461bcd60e51b815260040161032490613441565b600082815260208190526040902060040154421115611e5f5760008060005b600554811015611e415760006004600001600060046001018481548110611ca157611ca1613319565b60009182526020808320909101546001600160a01b0316835282810193909352604091820181208982528352818120805483518186028101860190945280845292939092919084015b82821015611d8c576000848152602090206040805160808101909152600384029091018054829060ff166001811115611d2557611d25613109565b6001811115611d3657611d36613109565b81526020016000820160019054906101000a90046001600160a01b03166001600160a01b03166001600160a01b031681526020016001820154815260200160028201548152505081526020019060010190611cea565b505050509050600081511115611e2e5760008160018351611dad919061341b565b81518110611dbd57611dbd613319565b6020026020010151905060006001811115611dda57611dda613109565b81516001811115611ded57611ded613109565b03611e045784611dfc81613345565b955050611e2c565b600181516001811115611e1957611e19613109565b03611e2c5783611e2881613345565b9450505b505b5080611e3981613345565b915050611c78565b81831115611e5457506002949350505050565b506001949350505050565b600082815260208190526040902060030154421015611e8057506003919050565b506000919050565b6000611e9382611c1d565b6003811115611ea457611ea4613109565b14611ef15760405162461bcd60e51b815260206004820152601e60248201527fe68a95e7a5a8e5b7b2e585b3e997adefbc8ce697a0e6b395e68a95e7a5a800006044820152606401610324565b60065433600090815260046020908152604080832085845290915290205410611f6f5760405162461bcd60e51b815260206004820152602a60248201527fe5b7b2e8b685e8bf87e69c80e5a4a7e68a95e7a5a8e6aca1e695b0efbc8ce697604482015269141cd672bcd152bcf4b560b31b6064820152608401610324565b6007546008546040516370a0823160e01b81523360048201526001600160a01b03909116906370a0823190602401602060405180830381865afa158015611fba573d6000803e3d6000fd5b505050506040513d601f19601f82011682018060405250810190611fde9190613180565b101561202c5760405162461bcd60e51b815260206004820152601b60248201527fe4bd99e9a29de4b88de8b6b3efbc8ce697a0e6b395e68a95e7a5a800000000006044820152606401610324565b600754600854604051636eb1769f60e11b81523360048201523060248201526001600160a01b039091169063dd62ed3e90604401602060405180830381865afa15801561207d573d6000803e3d6000fd5b505050506040513d601f19601f820116820180604052508101906120a19190613180565b10156121085760405162461bcd60e51b815260206004820152603060248201527fe7b3bbe7bb9fe5afb9e4bda0e79a84e98791e5b881e6b2a1e69c89e69d83e99960448201526f4871c0417457dbf34744734ec1f1c04160811b6064820152608401610324565b6008546007546040516323b872dd60e01b815233600482015230602482015260448101919091526001600160a01b03909116906323b872dd906064016020604051808303816000875af1158015612163573d6000803e3d6000fd5b505050506040513d601f19601f820116820180604052508101906121879190613199565b50600060405180608001604052808460018111156121a7576121a7613109565b60018111156121b8576121b8613109565b8152336020808301829052426040808501919091526060909301869052600091825260048152828220868352815291812080546001818101835591835292909120835160039093020180549394508493909291839160ff191690838181111561222357612223613109565b0217905550602082015181546001600160a01b0390911661010002610100600160a81b0319909116178155604082015160018201556060909101516002909101556000805b6005548210156122bd57600580543391908490811061228957612289613319565b6000918252602090912001546001600160a01b0316036122ab575060016122bd565b816122b581613345565b925050612268565b80610ba957600580546001810182556000919091527f036b6384b5eca791c62761152d0c79bb0604c104a5fb6f4eb0703f3154bb3db00180546001600160a01b031916331790555050505050565b61231442610764565b15156001146123355760405162461bcd60e51b8152600401610324906133cb565b600061233f610bb0565b90506000805b82518210156123a857600261237284848151811061236557612365613319565b6020026020010151611c1d565b600381111561238357612383613109565b03612396578061239281613345565b9150505b816123a081613345565b925050612345565b6003811061250c5760006123bd600383613374565b905060005b818111610ba957600954604080516060810190915260308082526001600160a01b039092169163a12b1d3791339161240891906135a86020830139610839866003613388565b6040518363ffffffff1660e01b815260040161242592919061339f565b602060405180830381865afa158015612442573d6000803e3d6000fd5b505050506040513d601f19601f820116820180604052508101906124669190613199565b156124fa57600954604080516060810190915260308082526001600160a01b039092169163cf3783439133916124aa91906135a86020830139610839866003613388565b6040518363ffffffff1660e01b81526004016124c792919061339f565b600060405180830381600087803b1580156124e157600080fd5b505af11580156124f5573d6000803e3d6000fd5b505050505b8061250481613345565b9150506123c2565b505050565b6060610d28836040518060a00160405280858152602001600081526020016000815260200160008152602001600081525060408051607f80825260a08201909252606091600091906020820181803683370190505090506000612577826000878761258e565b9050612585826000836129aa565b95945050505050565b600080808080805b875185101561292f5760008886815181106125b3576125b3613319565b016020015160f81c905060008390036126515780602503612641575b8585101561263c5788856125e281613345565b9650815181106125f4576125f4613319565b01602001516001600160f81b0319168b8b61260e81613345565b9c508151811061262057612620613319565b60200101906001600160f81b031916908160001a9053506125cf565b600192505b61264a86613345565b9550612929565b826001036126ba57806025036126b157602560f81b8b8b61267181613345565b9c508151811061268357612683613319565b60200101906001600160f81b031916908160001a9053506126a386613345565b955085945060009250612929565b60039250612929565b82600303612733575b603081101580156126d5575060398111155b1561272a576030816126e884600a613388565b6126f2919061342e565b6126fc919061341b565b91508861270887613345565b9650868151811061271b5761271b613319565b016020015160f81c90506126c3565b60049250612929565b82600403612929576000888561274881613345565b96506005811061275a5761275a613319565b60200201519050816064036127fd5760ff81901c6001036127be57602d60f81b8c8c61278581613345565b9d508151811061279757612797613319565b60200101906001600160f81b031916908160001a9053506127b781613470565b90506127f8565b602b60f81b8c8c6127ce81613345565b9d50815181106127e0576127e0613319565b60200101906001600160f81b031916908160001a9053505b607591505b816075036128255761281e8c8c8386156128175786612a8b565b6001612a8b565b9a50612911565b81607814806128345750816058145b156128575761281e8c8c83861561284b578661284e565b60015b86605814612bd7565b81607314806128665750816053145b1561289c5761281e8c8c836000871561287f5787612882565b601f5b87605314612891576000612894565b60015b60ff16612d7e565b816066036129115760ff81901c6001036128f557602d60f81b8c8c6128c081613345565b9d50815181106128d2576128d2613319565b60200101906001600160f81b031916908160001a9053506128f281613470565b90505b61290e8c8c8386156129075786612e7d565b6008612e7d565b9a505b61291a87613345565b96508695506000935060009250505b50612596565b8484101561299c57878461294281613345565b95508151811061295457612954613319565b01602001516001600160f81b0319168a8a61296e81613345565b9b508151811061298057612980613319565b60200101906001600160f81b031916908160001a90535061292f565b509698975050505050505050565b82516060908084106129bf57600092506129dd565b806129ca848661342e565b11156129dd576129da848261341b565b92505b60008367ffffffffffffffff8111156129f8576129f86131bb565b6040519080825280601f01601f191660200182016040528015612a22576020820181803683370190505b5090505b831561258557612a358461348c565b935085612a42858761342e565b81518110612a5257612a52613319565b602001015160f81c60f81b818581518110612a6f57612a6f613319565b60200101906001600160f81b031916908160001a905350612a26565b600083612a98818461342e565b92505b6000841180612aa957508285105b15612b0d57612ab9600a856134a3565b612ac490603061342e565b60f81b8686612ad281613345565b975081518110612ae457612ae4613319565b60200101906001600160f81b031916908160001a905350612b06600a85613374565b9350612a9b565b845b81811115612bcc576000878381518110612b2b57612b2b613319565b01602001516001600160f81b031916905087612b468361348c565b92508281518110612b5957612b59613319565b01602001516001600160f81b0319168884612b7381613345565b955081518110612b8557612b85613319565b60200101906001600160f81b031916908160001a90535080888381518110612baf57612baf613319565b60200101906001600160f81b031916908160001a90535050612b0f565b509395945050505050565b6000848183612be7576057612bea565b60375b60ff169050612bf9878661342e565b94505b6000861180612c0a57508487105b15612cb257600f86166009811115612c6257612c26828261342e565b60f81b8989612c3481613345565b9a5081518110612c4657612c46613319565b60200101906001600160f81b031916908160001a905350612ca5565b612c6d81603061342e565b60f81b8989612c7b81613345565b9a5081518110612c8d57612c8d613319565b60200101906001600160f81b031916908160001a9053505b600487901c965050612bfc565b865b82811115612d71576000898481518110612cd057612cd0613319565b01602001516001600160f81b031916905089612ceb8361348c565b92508281518110612cfe57612cfe613319565b01602001516001600160f81b0319168a85612d1881613345565b965081518110612d2a57612d2a613319565b60200101906001600160f81b031916908160001a905350808a8381518110612d5457612d54613319565b60200101906001600160f81b031916908160001a90535050612cb4565b5095979650505050505050565b600080612d8e8560ff881661341b565b905083811115612d9b5750825b6003612da886600161342e565b901b86901c95505b8015612e715760ff8616600184148015612dcb575060618110155b8015612dd85750607a8111155b15612def57612de860208261341b565b9050612e20565b836002148015612e00575060418110155b8015612e0d5750605a8111155b15612e2057612e1d60208261341b565b90505b8060f81b898980612e3090613345565b9a5081518110612e4257612e42613319565b60200101906001600160f81b031916908160001a90535060089690961c95612e698261348c565b915050612db0565b50949695505050505050565b600080612e8b83600a61359b565b9050612e9c86866128178488613374565b9450601760f91b8686612eae81613345565b975081518110612ec057612ec0613319565b60200101906001600160f81b031916908160001a905350612eec8686612ee684886134a3565b86612a8b565b9695505050505050565b60008060008060608587031215612f0c57600080fd5b843567ffffffffffffffff80821115612f2457600080fd5b818701915087601f830112612f3857600080fd5b813581811115612f4757600080fd5b886020828501011115612f5957600080fd5b6020928301999098509187013596604001359550909350505050565b600060208284031215612f8757600080fd5b5035919050565b600081518084526020808501945080840160005b83811015612fbe57815187529582019590820190600101612fa2565b509495945050505050565b602081526000610d286020830184612f8e565b60008060408385031215612fef57600080fd5b50508035926020909101359150565b600081518084526020808501945080840160005b83811015612fbe5781516001600160a01b031687529582019590820190600101613012565b60608152600061304a6060830186612f8e565b828103602084015261305c8186612f8e565b90508281036040840152612eec8185612ffe565b6000815180845260005b818110156130965760208185018101518683018201520161307a565b506000602082860101526020601f19601f83011685010191505092915050565b60a0815260006130c960a0830188613070565b6001600160a01b039690961660208301525060408101939093526060830191909152608090910152919050565b602081526000610d286020830184612ffe565b634e487b7160e01b600052602160045260246000fd5b602081016004831061314157634e487b7160e01b600052602160045260246000fd5b91905290565b60608152600061315a6060830186612f8e565b828103602084015261316c8186612f8e565b90508281036040840152612eec8185612f8e565b60006020828403121561319257600080fd5b5051919050565b6000602082840312156131ab57600080fd5b81518015158114610d2857600080fd5b634e487b7160e01b600052604160045260246000fd5b600181811c908216806131e557607f821691505b60208210810361320557634e487b7160e01b600052602260045260246000fd5b50919050565b601f82111561250c57600081815260208120601f850160051c810160208610156132325750805b601f850160051c820191505b818110156132515782815560010161323e565b505050505050565b815167ffffffffffffffff811115613273576132736131bb565b6132878161328184546131d1565b8461320b565b602080601f8311600181146132bc57600084156132a45750858301515b600019600386901b1c1916600185901b178555613251565b600085815260208120601f198616915b828110156132eb578886015182559484019460019091019084016132cc565b50858210156133095787850151600019600388901b60f8161c191681555b5050505050600190811b01905550565b634e487b7160e01b600052603260045260246000fd5b634e487b7160e01b600052601160045260246000fd5b6000600182016133575761335761332f565b5060010190565b634e487b7160e01b600052601260045260246000fd5b6000826133835761338361335e565b500490565b80820281158282048414176114dc576114dc61332f565b6001600160a01b03831681526040602082018190526000906133c390830184613070565b949350505050565b60208082526030908201527fe794b1e4ba8ee4b880e4ba9be58e9fe59ba0efbc8ce4bda0e697a0e6b395e88e60408201526fb7e5be97e98791e5b881e5a596e58ab160801b606082015260800190565b818103818111156114dc576114dc61332f565b808201808211156114dc576114dc61332f565b6020808252601590820152741d17f33c97155cd1b21d16b41c9711bcb5b31cb395605b1b604082015260600190565b6000600160ff1b82016134855761348561332f565b5060000390565b60008161349b5761349b61332f565b506000190190565b6000826134b2576134b261335e565b500690565b600181815b808511156134f25781600019048211156134d8576134d861332f565b808516156134e557918102915b93841c93908002906134bc565b509250929050565b600082613509575060016114dc565b81613516575060006114dc565b816001811461352c576002811461353657613552565b60019150506114dc565b60ff8411156135475761354761332f565b50506001821b6114dc565b5060208310610133831016604e8410600b8410161715613575575081810a6114dc565b61357f83836134b7565b80600019048211156135935761359361332f565b029392505050565b6000610d2883836134fa56fee794b1e4ba8ee4b880e4ba9be58e9fe59ba0efbc8ce4bda0e697a0e6b395e88eb7e5be97e98791e5b881e5a596e58ab1a2646970667358221220124ce680320d5dfbb23bbff11a68deed73c7b6ddabc39dec4bfb44a89423fe0964736f6c6343000811003360806040523480156200001157600080fd5b5060405162000d5538038062000d55833981016040819052620000349162000127565b8282600362000044838262000229565b50600462000053828262000229565b50505060055550620002f59050565b634e487b7160e01b600052604160045260246000fd5b600082601f8301126200008a57600080fd5b81516001600160401b0380821115620000a757620000a762000062565b604051601f8301601f19908116603f01168101908282118183101715620000d257620000d262000062565b81604052838152602092508683858801011115620000ef57600080fd5b600091505b83821015620001135785820183015181830184015290820190620000f4565b600093810190920192909252949350505050565b6000806000606084860312156200013d57600080fd5b83516001600160401b03808211156200015557600080fd5b620001638783880162000078565b945060208601519150808211156200017a57600080fd5b50620001898682870162000078565b925050604084015190509250925092565b600181811c90821680620001af57607f821691505b602082108103620001d057634e487b7160e01b600052602260045260246000fd5b50919050565b601f8211156200022457600081815260208120601f850160051c81016020861015620001ff5750805b601f850160051c820191505b8181101562000220578281556001016200020b565b5050505b505050565b81516001600160401b0381111562000245576200024562000062565b6200025d816200025684546200019a565b84620001d6565b602080601f8311600181146200029557600084156200027c5750858301515b600019600386901b1c1916600185901b17855562000220565b600085815260208120601f198616915b82811015620002c657888601518255948401946001909101908401620002a5565b5085821015620002e55787850151600019600388901b60f8161c191681555b5050505050600190811b01905550565b610a5080620003056000396000f3fe608060405234801561001057600080fd5b50600436106100ea5760003560e01c806370a082311161008c578063a457c2d711610066578063a457c2d7146101ba578063a9059cbb146101cd578063dd62ed3e146101e0578063e1aa80bb146101f357600080fd5b806370a082311461018157806383b81fe1146101aa57806395d89b41146101b257600080fd5b806323b872dd116100c857806323b872dd14610142578063313ce56714610155578063395093511461016457806342f065321461017757600080fd5b806306fdde03146100ef578063095ea7b31461010d57806318160ddd14610130575b600080fd5b6100f761020c565b604051610104919061089a565b60405180910390f35b61012061011b366004610904565b61029e565b6040519015158152602001610104565b6002545b604051908152602001610104565b61012061015036600461092e565b6102b8565b60405160128152602001610104565b610120610172366004610904565b6102dc565b61017f6102fe565b005b61013461018f36600461096a565b6001600160a01b031660009081526020819052604090205490565b600554610134565b6100f761038c565b6101206101c8366004610904565b61039b565b6101206101db366004610904565b610416565b6101346101ee36600461098c565b610424565b3360009081526006602052604090205460ff1615610120565b60606003805461021b906109bf565b80601f0160208091040260200160405190810160405280929190818152602001828054610247906109bf565b80156102945780601f1061026957610100808354040283529160200191610294565b820191906000526020600020905b81548152906001019060200180831161027757829003601f168201915b5050505050905090565b6000336102ac81858561044f565b60019150505b92915050565b6000336102c6858285610573565b6102d18585856105ed565b506001949350505050565b6000336102ac8185856102ef8383610424565b6102f991906109f9565b61044f565b3360009081526006602052604090205460ff16156103635760405162461bcd60e51b815260206004820152601960248201527f596f75206861766520676f7420474f4c4420616c72656164790000000000000060448201526064015b60405180910390fd5b336000818152600660205260409020805460ff1916600117905560055461038a91906107bb565b565b60606004805461021b906109bf565b600033816103a98286610424565b9050838110156104095760405162461bcd60e51b815260206004820152602560248201527f45524332303a2064656372656173656420616c6c6f77616e63652062656c6f77604482015264207a65726f60d81b606482015260840161035a565b6102d1828686840361044f565b6000336102ac8185856105ed565b6001600160a01b03918216600090815260016020908152604080832093909416825291909152205490565b6001600160a01b0383166104b15760405162461bcd60e51b8152602060048201526024808201527f45524332303a20617070726f76652066726f6d20746865207a65726f206164646044820152637265737360e01b606482015260840161035a565b6001600160a01b0382166105125760405162461bcd60e51b815260206004820152602260248201527f45524332303a20617070726f766520746f20746865207a65726f206164647265604482015261737360f01b606482015260840161035a565b6001600160a01b0383811660008181526001602090815260408083209487168084529482529182902085905590518481527f8c5be1e5ebec7d5bd14f71427d1e84f3dd0314c0f7b2291e5b200ac8c7c3b925910160405180910390a3505050565b600061057f8484610424565b905060001981146105e757818110156105da5760405162461bcd60e51b815260206004820152601d60248201527f45524332303a20696e73756666696369656e7420616c6c6f77616e6365000000604482015260640161035a565b6105e7848484840361044f565b50505050565b6001600160a01b0383166106515760405162461bcd60e51b815260206004820152602560248201527f45524332303a207472616e736665722066726f6d20746865207a65726f206164604482015264647265737360d81b606482015260840161035a565b6001600160a01b0382166106b35760405162461bcd60e51b815260206004820152602360248201527f45524332303a207472616e7366657220746f20746865207a65726f206164647260448201526265737360e81b606482015260840161035a565b6001600160a01b0383166000908152602081905260409020548181101561072b5760405162461bcd60e51b815260206004820152602660248201527f45524332303a207472616e7366657220616d6f756e7420657863656564732062604482015265616c616e636560d01b606482015260840161035a565b6001600160a01b038085166000908152602081905260408082208585039055918516815290812080548492906107629084906109f9565b92505081905550826001600160a01b0316846001600160a01b03167fddf252ad1be2c89b69c2b068fc378daa952ba7f163c4a11628f55a4df523b3ef846040516107ae91815260200190565b60405180910390a36105e7565b6001600160a01b0382166108115760405162461bcd60e51b815260206004820152601f60248201527f45524332303a206d696e7420746f20746865207a65726f206164647265737300604482015260640161035a565b806002600082825461082391906109f9565b90915550506001600160a01b038216600090815260208190526040812080548392906108509084906109f9565b90915550506040518181526001600160a01b038316906000907fddf252ad1be2c89b69c2b068fc378daa952ba7f163c4a11628f55a4df523b3ef9060200160405180910390a35050565b600060208083528351808285015260005b818110156108c7578581018301518582016040015282016108ab565b506000604082860101526040601f19601f8301168501019250505092915050565b80356001600160a01b03811681146108ff57600080fd5b919050565b6000806040838503121561091757600080fd5b610920836108e8565b946020939093013593505050565b60008060006060848603121561094357600080fd5b61094c846108e8565b925061095a602085016108e8565b9150604084013590509250925092565b60006020828403121561097c57600080fd5b610985826108e8565b9392505050565b6000806040838503121561099f57600080fd5b6109a8836108e8565b91506109b6602084016108e8565b90509250929050565b600181811c908216806109d357607f821691505b6020821081036109f357634e487b7160e01b600052602260045260246000fd5b50919050565b808201808211156102b257634e487b7160e01b600052601160045260246000fdfea26469706673582212204c547e18132d74994b8bf949099700769993eacf6619746430b3691c1193bfef64736f6c6343000811003360806040523480156200001157600080fd5b5060405162001eb538038062001eb5833981016040819052620000349162000136565b818160006200004483826200022f565b5060016200005382826200022f565b5050600880546001600160a01b0319163317905550620002fb915050565b634e487b7160e01b600052604160045260246000fd5b600082601f8301126200009957600080fd5b81516001600160401b0380821115620000b657620000b662000071565b604051601f8301601f19908116603f01168101908282118183101715620000e157620000e162000071565b81604052838152602092508683858801011115620000fe57600080fd5b600091505b8382101562000122578582018301518183018401529082019062000103565b600093810190920192909252949350505050565b600080604083850312156200014a57600080fd5b82516001600160401b03808211156200016257600080fd5b620001708683870162000087565b935060208501519150808211156200018757600080fd5b50620001968582860162000087565b9150509250929050565b600181811c90821680620001b557607f821691505b602082108103620001d657634e487b7160e01b600052602260045260246000fd5b50919050565b601f8211156200022a57600081815260208120601f850160051c81016020861015620002055750805b601f850160051c820191505b81811015620002265782815560010162000211565b5050505b505050565b81516001600160401b038111156200024b576200024b62000071565b62000263816200025c8454620001a0565b84620001dc565b602080601f8311600181146200029b5760008415620002825750858301515b600019600386901b1c1916600185901b17855562000226565b600085815260208120601f198616915b82811015620002cc57888601518255948401946001909101908401620002ab565b5085821015620002eb5787850151600019600388901b60f8161c191681555b5050505050600190811b01905550565b611baa806200030b6000396000f3fe608060405234801561001057600080fd5b50600436106101005760003560e01c806370a0823111610097578063b88d4fde11610066578063b88d4fde1461022c578063c87b56dd1461023f578063cf37834314610252578063e985e9c51461026557600080fd5b806370a08231146101dd57806395d89b41146101fe578063a12b1d3714610206578063a22cb4651461021957600080fd5b806323b872dd116100d357806323b872dd1461018257806342842e0e146101955780636352211e146101a857806364b8a6cf146101bb57600080fd5b806301ffc9a71461010557806306fdde031461012d578063081812fc14610142578063095ea7b31461016d575b600080fd5b61011861011336600461146f565b6102a1565b60405190151581526020015b60405180910390f35b6101356102f3565b60405161012491906114dc565b6101556101503660046114ef565b610385565b6040516001600160a01b039091168152602001610124565b61018061017b366004611524565b6103ac565b005b61018061019036600461154e565b6104c6565b6101806101a336600461154e565b6104f7565b6101556101b63660046114ef565b610512565b6101ce6101c936600461158a565b610572565b604051610124939291906115e0565b6101f06101eb36600461158a565b610851565b604051908152602001610124565b6101356108d7565b6101186102143660046116f1565b6108e6565b610180610227366004611753565b610929565b61018061023a36600461178f565b610938565b61013561024d3660046114ef565b610970565b6101806102603660046116f1565b610a80565b61011861027336600461180b565b6001600160a01b03918216600090815260056020908152604080832093909416825291909152205460ff1690565b60006001600160e01b031982166380ac58cd60e01b14806102d257506001600160e01b03198216635b5e139f60e01b145b806102ed57506301ffc9a760e01b6001600160e01b03198316145b92915050565b6060600080546103029061183e565b80601f016020809104026020016040519081016040528092919081815260200182805461032e9061183e565b801561037b5780601f106103505761010080835404028352916020019161037b565b820191906000526020600020905b81548152906001019060200180831161035e57829003601f168201915b5050505050905090565b600061039082610c23565b506000908152600460205260409020546001600160a01b031690565b60006103b782610512565b9050806001600160a01b0316836001600160a01b0316036104295760405162461bcd60e51b815260206004820152602160248201527f4552433732313a20617070726f76616c20746f2063757272656e74206f776e656044820152603960f91b60648201526084015b60405180910390fd5b336001600160a01b038216148061044557506104458133610273565b6104b75760405162461bcd60e51b815260206004820152603e60248201527f4552433732313a20617070726f76652063616c6c6572206973206e6f7420746f60448201527f6b656e206f776e6572206e6f7220617070726f76656420666f7220616c6c00006064820152608401610420565b6104c18383610c85565b505050565b6104d03382610cf3565b6104ec5760405162461bcd60e51b815260040161042090611878565b6104c1838383610d71565b6104c183838360405180602001604052806000815250610938565b6000818152600260205260408120546001600160a01b0316806102ed5760405162461bcd60e51b8152602060048201526018602482015277115490cdcc8c4e881a5b9d985b1a59081d1bdad95b88125160421b6044820152606401610420565b6001600160a01b0381166000908152600960209081526040808320805482518185028101850190935280835260609485948594919384939091849084015b828210156106885783829060005260206000209060030201604051806060016040529081600082015481526020016001820180546105ed9061183e565b80601f01602080910402602001604051908101604052809291908181526020018280546106199061183e565b80156106665780601f1061063b57610100808354040283529160200191610666565b820191906000526020600020905b81548152906001019060200180831161064957829003601f168201915b50505050508152602001600282015481525050815260200190600101906105b0565b5050505090506000815167ffffffffffffffff8111156106aa576106aa611665565b6040519080825280602002602001820160405280156106d3578160200160208202803683370190505b5090506000825167ffffffffffffffff8111156106f2576106f2611665565b60405190808252806020026020018201604052801561072557816020015b60608152602001906001900390816107105790505b5090506000835167ffffffffffffffff81111561074457610744611665565b60405190808252806020026020018201604052801561076d578160200160208202803683370190505b509050600094505b835185101561084257838581518110610790576107906118c6565b6020026020010151600001518386815181106107ae576107ae6118c6565b6020026020010181815250508385815181106107cc576107cc6118c6565b6020026020010151602001518286815181106107ea576107ea6118c6565b6020026020010181905250838581518110610807576108076118c6565b602002602001015160400151818681518110610825576108256118c6565b60209081029190910101528461083a816118f2565b955050610775565b91989097509095509350505050565b60006001600160a01b0382166108bb5760405162461bcd60e51b815260206004820152602960248201527f4552433732313a2061646472657373207a65726f206973206e6f7420612076616044820152683634b21037bbb732b960b91b6064820152608401610420565b506001600160a01b031660009081526003602052604090205490565b6060600180546103029061183e565b6000600a826040516108f8919061190b565b90815260408051602092819003830190206001600160a01b0386166000908152925290205460ff1615905092915050565b610934338383610f0d565b5050565b6109423383610cf3565b61095e5760405162461bcd60e51b815260040161042090611878565b61096a84848484610fdb565b50505050565b606061097b82610c23565b600082815260066020526040812080546109949061183e565b80601f01602080910402602001604051908101604052809291908181526020018280546109c09061183e565b8015610a0d5780601f106109e257610100808354040283529160200191610a0d565b820191906000526020600020905b8154815290600101906020018083116109f057829003601f168201915b505050505090506000610a2b60408051602081019091526000815290565b90508051600003610a3d575092915050565b815115610a6f578082604051602001610a57929190611927565b60405160208183030381529060405292505050919050565b610a788461100e565b949350505050565b6008546001600160a01b03163314610aef5760405162461bcd60e51b815260206004820152602c60248201527fe58faae69c89e7b3bbe7bb9fe58fafe4bba5e8aebfe997aee6ada4e587bde69560448201526bb028617761726454696d652960a01b6064820152608401610420565b600a81604051610aff919061190b565b9081526040805160209281900383019020336000908152925290205460ff1615610b455760405162461bcd60e51b81526020600482015260006024820152604401610420565b6001600a82604051610b57919061190b565b90815260408051602092819003830190206001600160a01b038616600090815292528120805460ff1916921515929092179091556007549050610b9a8382611082565b610ba481836111c4565b610bb2600780546001019055565b60408051606081018252828152602080820185815242838501526001600160a01b038716600090815260098352938420805460018181018355918652929094208351600390930201918255519192839290820190610c1090826119a4565b5060408201518160020155505050505050565b6000818152600260205260409020546001600160a01b0316610c825760405162461bcd60e51b8152602060048201526018602482015277115490cdcc8c4e881a5b9d985b1a59081d1bdad95b88125160421b6044820152606401610420565b50565b600081815260046020526040902080546001600160a01b0319166001600160a01b0384169081179091558190610cba82610512565b6001600160a01b03167f8c5be1e5ebec7d5bd14f71427d1e84f3dd0314c0f7b2291e5b200ac8c7c3b92560405160405180910390a45050565b600080610cff83610512565b9050806001600160a01b0316846001600160a01b03161480610d4657506001600160a01b0380821660009081526005602090815260408083209388168352929052205460ff165b80610a785750836001600160a01b0316610d5f84610385565b6001600160a01b031614949350505050565b826001600160a01b0316610d8482610512565b6001600160a01b031614610de85760405162461bcd60e51b815260206004820152602560248201527f4552433732313a207472616e736665722066726f6d20696e636f72726563742060448201526437bbb732b960d91b6064820152608401610420565b6001600160a01b038216610e4a5760405162461bcd60e51b8152602060048201526024808201527f4552433732313a207472616e7366657220746f20746865207a65726f206164646044820152637265737360e01b6064820152608401610420565b610e55600082610c85565b6001600160a01b0383166000908152600360205260408120805460019290610e7e908490611a64565b90915550506001600160a01b0382166000908152600360205260408120805460019290610eac908490611a77565b909155505060008181526002602052604080822080546001600160a01b0319166001600160a01b0386811691821790925591518493918716917fddf252ad1be2c89b69c2b068fc378daa952ba7f163c4a11628f55a4df523b3ef91a4505050565b816001600160a01b0316836001600160a01b031603610f6e5760405162461bcd60e51b815260206004820152601960248201527f4552433732313a20617070726f766520746f2063616c6c6572000000000000006044820152606401610420565b6001600160a01b03838116600081815260056020908152604080832094871680845294825291829020805460ff191686151590811790915591519182527f17307eab39ab6107e8899845ad3d59bd9653f200f220920489ca2b5937696c31910160405180910390a3505050565b610fe6848484610d71565b610ff284848484611257565b61096a5760405162461bcd60e51b815260040161042090611a8a565b606061101982610c23565b600061103060408051602081019091526000815290565b90506000815111611050576040518060200160405280600081525061107b565b8061105a84611358565b60405160200161106b929190611927565b6040516020818303038152906040525b9392505050565b6001600160a01b0382166110d85760405162461bcd60e51b815260206004820181905260248201527f4552433732313a206d696e7420746f20746865207a65726f20616464726573736044820152606401610420565b6000818152600260205260409020546001600160a01b03161561113d5760405162461bcd60e51b815260206004820152601c60248201527f4552433732313a20746f6b656e20616c7265616479206d696e746564000000006044820152606401610420565b6001600160a01b0382166000908152600360205260408120805460019290611166908490611a77565b909155505060008181526002602052604080822080546001600160a01b0319166001600160a01b03861690811790915590518392907fddf252ad1be2c89b69c2b068fc378daa952ba7f163c4a11628f55a4df523b3ef908290a45050565b6000828152600260205260409020546001600160a01b031661123f5760405162461bcd60e51b815260206004820152602e60248201527f45524337323155524953746f726167653a2055524920736574206f66206e6f6e60448201526d32bc34b9ba32b73a103a37b5b2b760911b6064820152608401610420565b60008281526006602052604090206104c182826119a4565b60006001600160a01b0384163b1561134d57604051630a85bd0160e11b81526001600160a01b0385169063150b7a029061129b903390899088908890600401611adc565b6020604051808303816000875af19250505080156112d6575060408051601f3d908101601f191682019092526112d391810190611b19565b60015b611333573d808015611304576040519150601f19603f3d011682016040523d82523d6000602084013e611309565b606091505b50805160000361132b5760405162461bcd60e51b815260040161042090611a8a565b805181602001fd5b6001600160e01b031916630a85bd0160e11b149050610a78565b506001949350505050565b60608160000361137f5750506040805180820190915260018152600360fc1b602082015290565b8160005b81156113a95780611393816118f2565b91506113a29050600a83611b4c565b9150611383565b60008167ffffffffffffffff8111156113c4576113c4611665565b6040519080825280601f01601f1916602001820160405280156113ee576020820181803683370190505b5090505b8415610a7857611403600183611a64565b9150611410600a86611b60565b61141b906030611a77565b60f81b818381518110611430576114306118c6565b60200101906001600160f81b031916908160001a905350611452600a86611b4c565b94506113f2565b6001600160e01b031981168114610c8257600080fd5b60006020828403121561148157600080fd5b813561107b81611459565b60005b838110156114a757818101518382015260200161148f565b50506000910152565b600081518084526114c881602086016020860161148c565b601f01601f19169290920160200192915050565b60208152600061107b60208301846114b0565b60006020828403121561150157600080fd5b5035919050565b80356001600160a01b038116811461151f57600080fd5b919050565b6000806040838503121561153757600080fd5b61154083611508565b946020939093013593505050565b60008060006060848603121561156357600080fd5b61156c84611508565b925061157a60208501611508565b9150604084013590509250925092565b60006020828403121561159c57600080fd5b61107b82611508565b600081518084526020808501945080840160005b838110156115d5578151875295820195908201906001016115b9565b509495945050505050565b6060815260006115f360608301866115a5565b6020838203818501528186518084528284019150828160051b85010183890160005b8381101561164357601f198784030185526116318383516114b0565b94860194925090850190600101611615565b5050868103604088015261165781896115a5565b9a9950505050505050505050565b634e487b7160e01b600052604160045260246000fd5b600067ffffffffffffffff8084111561169657611696611665565b604051601f8501601f19908116603f011681019082821181831017156116be576116be611665565b816040528093508581528686860111156116d757600080fd5b858560208301376000602087830101525050509392505050565b6000806040838503121561170457600080fd5b61170d83611508565b9150602083013567ffffffffffffffff81111561172957600080fd5b8301601f8101851361173a57600080fd5b6117498582356020840161167b565b9150509250929050565b6000806040838503121561176657600080fd5b61176f83611508565b91506020830135801515811461178457600080fd5b809150509250929050565b600080600080608085870312156117a557600080fd5b6117ae85611508565b93506117bc60208601611508565b925060408501359150606085013567ffffffffffffffff8111156117df57600080fd5b8501601f810187136117f057600080fd5b6117ff8782356020840161167b565b91505092959194509250565b6000806040838503121561181e57600080fd5b61182783611508565b915061183560208401611508565b90509250929050565b600181811c9082168061185257607f821691505b60208210810361187257634e487b7160e01b600052602260045260246000fd5b50919050565b6020808252602e908201527f4552433732313a2063616c6c6572206973206e6f7420746f6b656e206f776e6560408201526d1c881b9bdc88185c1c1c9bdd995960921b606082015260800190565b634e487b7160e01b600052603260045260246000fd5b634e487b7160e01b600052601160045260246000fd5b600060018201611904576119046118dc565b5060010190565b6000825161191d81846020870161148c565b9190910192915050565b6000835161193981846020880161148c565b83519083019061194d81836020880161148c565b01949350505050565b601f8211156104c157600081815260208120601f850160051c8101602086101561197d5750805b601f850160051c820191505b8181101561199c57828155600101611989565b505050505050565b815167ffffffffffffffff8111156119be576119be611665565b6119d2816119cc845461183e565b84611956565b602080601f831160018114611a0757600084156119ef5750858301515b600019600386901b1c1916600185901b17855561199c565b600085815260208120601f198616915b82811015611a3657888601518255948401946001909101908401611a17565b5085821015611a545787850151600019600388901b60f8161c191681555b5050505050600190811b01905550565b818103818111156102ed576102ed6118dc565b808201808211156102ed576102ed6118dc565b60208082526032908201527f4552433732313a207472616e7366657220746f206e6f6e20455243373231526560408201527131b2b4bb32b91034b6b83632b6b2b73a32b960711b606082015260800190565b6001600160a01b0385811682528416602082015260408101839052608060608201819052600090611b0f908301846114b0565b9695505050505050565b600060208284031215611b2b57600080fd5b815161107b81611459565b634e487b7160e01b600052601260045260246000fd5b600082611b5b57611b5b611b36565b500490565b600082611b6f57611b6f611b36565b50069056fea26469706673582212205470a2d576036a6037ff55e9be3231548a39bfaa30d57f767d2a6a95d6f6bd3564736f6c63430008110033",
  "linkReferences": {},
  "deployedLinkReferences": {}
}