{
  "_format": "hh-sol-artifact-1",
  "contractName": "AwardContract",
  "sourceName": "contracts/AwardContract.sol",
  "abi": [
    {
      "inputs": [
        {
          "internalType": "string",
          "name": "name",
          "type": "string"
        },
        {
          "internalType": "string",
          "name": "symbol",
          "type": "string"
        }
      ],
      "stateMutability": "nonpayable",
      "type": "constructor"
    },
    {
      "anonymous": false,
      "inputs": [
        {
          "indexed": true,
          "internalType": "address",
          "name": "owner",
          "type": "address"
        },
        {
          "indexed": true,
          "internalType": "address",
          "name": "approved",
          "type": "address"
        },
        {
          "indexed": true,
          "internalType": "uint256",
          "name": "tokenId",
          "type": "uint256"
        }
      ],
      "name": "Approval",
      "type": "event"
    },
    {
      "anonymous": false,
      "inputs": [
        {
          "indexed": true,
          "internalType": "address",
          "name": "owner",
          "type": "address"
        },
        {
          "indexed": true,
          "internalType": "address",
          "name": "operator",
          "type": "address"
        },
        {
          "indexed": false,
          "internalType": "bool",
          "name": "approved",
          "type": "bool"
        }
      ],
      "name": "ApprovalForAll",
      "type": "event"
    },
    {
      "anonymous": false,
      "inputs": [
        {
          "indexed": true,
          "internalType": "address",
          "name": "from",
          "type": "address"
        },
        {
          "indexed": true,
          "internalType": "address",
          "name": "to",
          "type": "address"
        },
        {
          "indexed": true,
          "internalType": "uint256",
          "name": "tokenId",
          "type": "uint256"
        }
      ],
      "name": "Transfer",
      "type": "event"
    },
    {
      "inputs": [
        {
          "internalType": "address",
          "name": "to",
          "type": "address"
        },
        {
          "internalType": "uint256",
          "name": "tokenId",
          "type": "uint256"
        }
      ],
      "name": "approve",
      "outputs": [],
      "stateMutability": "nonpayable",
      "type": "function"
    },
    {
      "inputs": [
        {
          "internalType": "address",
          "name": "user",
          "type": "address"
        },
        {
          "internalType": "string",
          "name": "tokenURI",
          "type": "string"
        }
      ],
      "name": "awardItem",
      "outputs": [],
      "stateMutability": "nonpayable",
      "type": "function"
    },
    {
      "inputs": [
        {
          "internalType": "address",
          "name": "owner",
          "type": "address"
        }
      ],
      "name": "balanceOf",
      "outputs": [
        {
          "internalType": "uint256",
          "name": "",
          "type": "uint256"
        }
      ],
      "stateMutability": "view",
      "type": "function"
    },
    {
      "inputs": [
        {
          "internalType": "uint256",
          "name": "tokenId",
          "type": "uint256"
        }
      ],
      "name": "getApproved",
      "outputs": [
        {
          "internalType": "address",
          "name": "",
          "type": "address"
        }
      ],
      "stateMutability": "view",
      "type": "function"
    },
    {
      "inputs": [
        {
          "internalType": "address",
          "name": "user",
          "type": "address"
        }
      ],
      "name": "getAwardInformation",
      "outputs": [
        {
          "internalType": "uint256[]",
          "name": "",
          "type": "uint256[]"
        },
        {
          "internalType": "string[]",
          "name": "",
          "type": "string[]"
        },
        {
          "internalType": "uint256[]",
          "name": "",
          "type": "uint256[]"
        }
      ],
      "stateMutability": "view",
      "type": "function"
    },
    {
      "inputs": [
        {
          "internalType": "address",
          "name": "user",
          "type": "address"
        },
        {
          "internalType": "string",
          "name": "tokenURI",
          "type": "string"
        }
      ],
      "name": "getWhetherUserCanGetAward",
      "outputs": [
        {
          "internalType": "bool",
          "name": "",
          "type": "bool"
        }
      ],
      "stateMutability": "view",
      "type": "function"
    },
    {
      "inputs": [
        {
          "internalType": "address",
          "name": "owner",
          "type": "address"
        },
        {
          "internalType": "address",
          "name": "operator",
          "type": "address"
        }
      ],
      "name": "isApprovedForAll",
      "outputs": [
        {
          "internalType": "bool",
          "name": "",
          "type": "bool"
        }
      ],
      "stateMutability": "view",
      "type": "function"
    },
    {
      "inputs": [],
      "name": "name",
      "outputs": [
        {
          "internalType": "string",
          "name": "",
          "type": "string"
        }
      ],
      "stateMutability": "view",
      "type": "function"
    },
    {
      "inputs": [
        {
          "internalType": "uint256",
          "name": "tokenId",
          "type": "uint256"
        }
      ],
      "name": "ownerOf",
      "outputs": [
        {
          "internalType": "address",
          "name": "",
          "type": "address"
        }
      ],
      "stateMutability": "view",
      "type": "function"
    },
    {
      "inputs": [
        {
          "internalType": "address",
          "name": "from",
          "type": "address"
        },
        {
          "internalType": "address",
          "name": "to",
          "type": "address"
        },
        {
          "internalType": "uint256",
          "name": "tokenId",
          "type": "uint256"
        }
      ],
      "name": "safeTransferFrom",
      "outputs": [],
      "stateMutability": "nonpayable",
      "type": "function"
    },
    {
      "inputs": [
        {
          "internalType": "address",
          "name": "from",
          "type": "address"
        },
        {
          "internalType": "address",
          "name": "to",
          "type": "address"
        },
        {
          "internalType": "uint256",
          "name": "tokenId",
          "type": "uint256"
        },
        {
          "internalType": "bytes",
          "name": "data",
          "type": "bytes"
        }
      ],
      "name": "safeTransferFrom",
      "outputs": [],
      "stateMutability": "nonpayable",
      "type": "function"
    },
    {
      "inputs": [
        {
          "internalType": "address",
          "name": "operator",
          "type": "address"
        },
        {
          "internalType": "bool",
          "name": "approved",
          "type": "bool"
        }
      ],
      "name": "setApprovalForAll",
      "outputs": [],
      "stateMutability": "nonpayable",
      "type": "function"
    },
    {
      "inputs": [
        {
          "internalType": "bytes4",
          "name": "interfaceId",
          "type": "bytes4"
        }
      ],
      "name": "supportsInterface",
      "outputs": [
        {
          "internalType": "bool",
          "name": "",
          "type": "bool"
        }
      ],
      "stateMutability": "view",
      "type": "function"
    },
    {
      "inputs": [],
      "name": "symbol",
      "outputs": [
        {
          "internalType": "string",
          "name": "",
          "type": "string"
        }
      ],
      "stateMutability": "view",
      "type": "function"
    },
    {
      "inputs": [
        {
          "internalType": "uint256",
          "name": "tokenId",
          "type": "uint256"
        }
      ],
      "name": "tokenURI",
      "outputs": [
        {
          "internalType": "string",
          "name": "",
          "type": "string"
        }
      ],
      "stateMutability": "view",
      "type": "function"
    },
    {
      "inputs": [
        {
          "internalType": "address",
          "name": "from",
          "type": "address"
        },
        {
          "internalType": "address",
          "name": "to",
          "type": "address"
        },
        {
          "internalType": "uint256",
          "name": "tokenId",
          "type": "uint256"
        }
      ],
      "name": "transferFrom",
      "outputs": [],
      "stateMutability": "nonpayable",
      "type": "function"
    }
  ],
  "bytecode": "0x60806040523480156200001157600080fd5b5060405162001eb538038062001eb5833981016040819052620000349162000136565b818160006200004483826200022f565b5060016200005382826200022f565b5050600880546001600160a01b0319163317905550620002fb915050565b634e487b7160e01b600052604160045260246000fd5b600082601f8301126200009957600080fd5b81516001600160401b0380821115620000b657620000b662000071565b604051601f8301601f19908116603f01168101908282118183101715620000e157620000e162000071565b81604052838152602092508683858801011115620000fe57600080fd5b600091505b8382101562000122578582018301518183018401529082019062000103565b600093810190920192909252949350505050565b600080604083850312156200014a57600080fd5b82516001600160401b03808211156200016257600080fd5b620001708683870162000087565b935060208501519150808211156200018757600080fd5b50620001968582860162000087565b9150509250929050565b600181811c90821680620001b557607f821691505b602082108103620001d657634e487b7160e01b600052602260045260246000fd5b50919050565b601f8211156200022a57600081815260208120601f850160051c81016020861015620002055750805b601f850160051c820191505b81811015620002265782815560010162000211565b5050505b505050565b81516001600160401b038111156200024b576200024b62000071565b62000263816200025c8454620001a0565b84620001dc565b602080601f8311600181146200029b5760008415620002825750858301515b600019600386901b1c1916600185901b17855562000226565b600085815260208120601f198616915b82811015620002cc57888601518255948401946001909101908401620002ab565b5085821015620002eb5787850151600019600388901b60f8161c191681555b5050505050600190811b01905550565b611baa806200030b6000396000f3fe608060405234801561001057600080fd5b50600436106101005760003560e01c806370a0823111610097578063b88d4fde11610066578063b88d4fde1461022c578063c87b56dd1461023f578063cf37834314610252578063e985e9c51461026557600080fd5b806370a08231146101dd57806395d89b41146101fe578063a12b1d3714610206578063a22cb4651461021957600080fd5b806323b872dd116100d357806323b872dd1461018257806342842e0e146101955780636352211e146101a857806364b8a6cf146101bb57600080fd5b806301ffc9a71461010557806306fdde031461012d578063081812fc14610142578063095ea7b31461016d575b600080fd5b61011861011336600461146f565b6102a1565b60405190151581526020015b60405180910390f35b6101356102f3565b60405161012491906114dc565b6101556101503660046114ef565b610385565b6040516001600160a01b039091168152602001610124565b61018061017b366004611524565b6103ac565b005b61018061019036600461154e565b6104c6565b6101806101a336600461154e565b6104f7565b6101556101b63660046114ef565b610512565b6101ce6101c936600461158a565b610572565b604051610124939291906115e0565b6101f06101eb36600461158a565b610851565b604051908152602001610124565b6101356108d7565b6101186102143660046116f1565b6108e6565b610180610227366004611753565b610929565b61018061023a36600461178f565b610938565b61013561024d3660046114ef565b610970565b6101806102603660046116f1565b610a80565b61011861027336600461180b565b6001600160a01b03918216600090815260056020908152604080832093909416825291909152205460ff1690565b60006001600160e01b031982166380ac58cd60e01b14806102d257506001600160e01b03198216635b5e139f60e01b145b806102ed57506301ffc9a760e01b6001600160e01b03198316145b92915050565b6060600080546103029061183e565b80601f016020809104026020016040519081016040528092919081815260200182805461032e9061183e565b801561037b5780601f106103505761010080835404028352916020019161037b565b820191906000526020600020905b81548152906001019060200180831161035e57829003601f168201915b5050505050905090565b600061039082610c23565b506000908152600460205260409020546001600160a01b031690565b60006103b782610512565b9050806001600160a01b0316836001600160a01b0316036104295760405162461bcd60e51b815260206004820152602160248201527f4552433732313a20617070726f76616c20746f2063757272656e74206f776e656044820152603960f91b60648201526084015b60405180910390fd5b336001600160a01b038216148061044557506104458133610273565b6104b75760405162461bcd60e51b815260206004820152603e60248201527f4552433732313a20617070726f76652063616c6c6572206973206e6f7420746f60448201527f6b656e206f776e6572206e6f7220617070726f76656420666f7220616c6c00006064820152608401610420565b6104c18383610c85565b505050565b6104d03382610cf3565b6104ec5760405162461bcd60e51b815260040161042090611878565b6104c1838383610d71565b6104c183838360405180602001604052806000815250610938565b6000818152600260205260408120546001600160a01b0316806102ed5760405162461bcd60e51b8152602060048201526018602482015277115490cdcc8c4e881a5b9d985b1a59081d1bdad95b88125160421b6044820152606401610420565b6001600160a01b0381166000908152600960209081526040808320805482518185028101850190935280835260609485948594919384939091849084015b828210156106885783829060005260206000209060030201604051806060016040529081600082015481526020016001820180546105ed9061183e565b80601f01602080910402602001604051908101604052809291908181526020018280546106199061183e565b80156106665780601f1061063b57610100808354040283529160200191610666565b820191906000526020600020905b81548152906001019060200180831161064957829003601f168201915b50505050508152602001600282015481525050815260200190600101906105b0565b5050505090506000815167ffffffffffffffff8111156106aa576106aa611665565b6040519080825280602002602001820160405280156106d3578160200160208202803683370190505b5090506000825167ffffffffffffffff8111156106f2576106f2611665565b60405190808252806020026020018201604052801561072557816020015b60608152602001906001900390816107105790505b5090506000835167ffffffffffffffff81111561074457610744611665565b60405190808252806020026020018201604052801561076d578160200160208202803683370190505b509050600094505b835185101561084257838581518110610790576107906118c6565b6020026020010151600001518386815181106107ae576107ae6118c6565b6020026020010181815250508385815181106107cc576107cc6118c6565b6020026020010151602001518286815181106107ea576107ea6118c6565b6020026020010181905250838581518110610807576108076118c6565b602002602001015160400151818681518110610825576108256118c6565b60209081029190910101528461083a816118f2565b955050610775565b91989097509095509350505050565b60006001600160a01b0382166108bb5760405162461bcd60e51b815260206004820152602960248201527f4552433732313a2061646472657373207a65726f206973206e6f7420612076616044820152683634b21037bbb732b960b91b6064820152608401610420565b506001600160a01b031660009081526003602052604090205490565b6060600180546103029061183e565b6000600a826040516108f8919061190b565b90815260408051602092819003830190206001600160a01b0386166000908152925290205460ff1615905092915050565b610934338383610f0d565b5050565b6109423383610cf3565b61095e5760405162461bcd60e51b815260040161042090611878565b61096a84848484610fdb565b50505050565b606061097b82610c23565b600082815260066020526040812080546109949061183e565b80601f01602080910402602001604051908101604052809291908181526020018280546109c09061183e565b8015610a0d5780601f106109e257610100808354040283529160200191610a0d565b820191906000526020600020905b8154815290600101906020018083116109f057829003601f168201915b505050505090506000610a2b60408051602081019091526000815290565b90508051600003610a3d575092915050565b815115610a6f578082604051602001610a57929190611927565b60405160208183030381529060405292505050919050565b610a788461100e565b949350505050565b6008546001600160a01b03163314610aef5760405162461bcd60e51b815260206004820152602c60248201527fe58faae69c89e7b3bbe7bb9fe58fafe4bba5e8aebfe997aee6ada4e587bde69560448201526bb028617761726454696d652960a01b6064820152608401610420565b600a81604051610aff919061190b565b9081526040805160209281900383019020336000908152925290205460ff1615610b455760405162461bcd60e51b81526020600482015260006024820152604401610420565b6001600a82604051610b57919061190b565b90815260408051602092819003830190206001600160a01b038616600090815292528120805460ff1916921515929092179091556007549050610b9a8382611082565b610ba481836111c4565b610bb2600780546001019055565b60408051606081018252828152602080820185815242838501526001600160a01b038716600090815260098352938420805460018181018355918652929094208351600390930201918255519192839290820190610c1090826119a4565b5060408201518160020155505050505050565b6000818152600260205260409020546001600160a01b0316610c825760405162461bcd60e51b8152602060048201526018602482015277115490cdcc8c4e881a5b9d985b1a59081d1bdad95b88125160421b6044820152606401610420565b50565b600081815260046020526040902080546001600160a01b0319166001600160a01b0384169081179091558190610cba82610512565b6001600160a01b03167f8c5be1e5ebec7d5bd14f71427d1e84f3dd0314c0f7b2291e5b200ac8c7c3b92560405160405180910390a45050565b600080610cff83610512565b9050806001600160a01b0316846001600160a01b03161480610d4657506001600160a01b0380821660009081526005602090815260408083209388168352929052205460ff165b80610a785750836001600160a01b0316610d5f84610385565b6001600160a01b031614949350505050565b826001600160a01b0316610d8482610512565b6001600160a01b031614610de85760405162461bcd60e51b815260206004820152602560248201527f4552433732313a207472616e736665722066726f6d20696e636f72726563742060448201526437bbb732b960d91b6064820152608401610420565b6001600160a01b038216610e4a5760405162461bcd60e51b8152602060048201526024808201527f4552433732313a207472616e7366657220746f20746865207a65726f206164646044820152637265737360e01b6064820152608401610420565b610e55600082610c85565b6001600160a01b0383166000908152600360205260408120805460019290610e7e908490611a64565b90915550506001600160a01b0382166000908152600360205260408120805460019290610eac908490611a77565b909155505060008181526002602052604080822080546001600160a01b0319166001600160a01b0386811691821790925591518493918716917fddf252ad1be2c89b69c2b068fc378daa952ba7f163c4a11628f55a4df523b3ef91a4505050565b816001600160a01b0316836001600160a01b031603610f6e5760405162461bcd60e51b815260206004820152601960248201527f4552433732313a20617070726f766520746f2063616c6c6572000000000000006044820152606401610420565b6001600160a01b03838116600081815260056020908152604080832094871680845294825291829020805460ff191686151590811790915591519182527f17307eab39ab6107e8899845ad3d59bd9653f200f220920489ca2b5937696c31910160405180910390a3505050565b610fe6848484610d71565b610ff284848484611257565b61096a5760405162461bcd60e51b815260040161042090611a8a565b606061101982610c23565b600061103060408051602081019091526000815290565b90506000815111611050576040518060200160405280600081525061107b565b8061105a84611358565b60405160200161106b929190611927565b6040516020818303038152906040525b9392505050565b6001600160a01b0382166110d85760405162461bcd60e51b815260206004820181905260248201527f4552433732313a206d696e7420746f20746865207a65726f20616464726573736044820152606401610420565b6000818152600260205260409020546001600160a01b03161561113d5760405162461bcd60e51b815260206004820152601c60248201527f4552433732313a20746f6b656e20616c7265616479206d696e746564000000006044820152606401610420565b6001600160a01b0382166000908152600360205260408120805460019290611166908490611a77565b909155505060008181526002602052604080822080546001600160a01b0319166001600160a01b03861690811790915590518392907fddf252ad1be2c89b69c2b068fc378daa952ba7f163c4a11628f55a4df523b3ef908290a45050565b6000828152600260205260409020546001600160a01b031661123f5760405162461bcd60e51b815260206004820152602e60248201527f45524337323155524953746f726167653a2055524920736574206f66206e6f6e60448201526d32bc34b9ba32b73a103a37b5b2b760911b6064820152608401610420565b60008281526006602052604090206104c182826119a4565b60006001600160a01b0384163b1561134d57604051630a85bd0160e11b81526001600160a01b0385169063150b7a029061129b903390899088908890600401611adc565b6020604051808303816000875af19250505080156112d6575060408051601f3d908101601f191682019092526112d391810190611b19565b60015b611333573d808015611304576040519150601f19603f3d011682016040523d82523d6000602084013e611309565b606091505b50805160000361132b5760405162461bcd60e51b815260040161042090611a8a565b805181602001fd5b6001600160e01b031916630a85bd0160e11b149050610a78565b506001949350505050565b60608160000361137f5750506040805180820190915260018152600360fc1b602082015290565b8160005b81156113a95780611393816118f2565b91506113a29050600a83611b4c565b9150611383565b60008167ffffffffffffffff8111156113c4576113c4611665565b6040519080825280601f01601f1916602001820160405280156113ee576020820181803683370190505b5090505b8415610a7857611403600183611a64565b9150611410600a86611b60565b61141b906030611a77565b60f81b818381518110611430576114306118c6565b60200101906001600160f81b031916908160001a905350611452600a86611b4c565b94506113f2565b6001600160e01b031981168114610c8257600080fd5b60006020828403121561148157600080fd5b813561107b81611459565b60005b838110156114a757818101518382015260200161148f565b50506000910152565b600081518084526114c881602086016020860161148c565b601f01601f19169290920160200192915050565b60208152600061107b60208301846114b0565b60006020828403121561150157600080fd5b5035919050565b80356001600160a01b038116811461151f57600080fd5b919050565b6000806040838503121561153757600080fd5b61154083611508565b946020939093013593505050565b60008060006060848603121561156357600080fd5b61156c84611508565b925061157a60208501611508565b9150604084013590509250925092565b60006020828403121561159c57600080fd5b61107b82611508565b600081518084526020808501945080840160005b838110156115d5578151875295820195908201906001016115b9565b509495945050505050565b6060815260006115f360608301866115a5565b6020838203818501528186518084528284019150828160051b85010183890160005b8381101561164357601f198784030185526116318383516114b0565b94860194925090850190600101611615565b5050868103604088015261165781896115a5565b9a9950505050505050505050565b634e487b7160e01b600052604160045260246000fd5b600067ffffffffffffffff8084111561169657611696611665565b604051601f8501601f19908116603f011681019082821181831017156116be576116be611665565b816040528093508581528686860111156116d757600080fd5b858560208301376000602087830101525050509392505050565b6000806040838503121561170457600080fd5b61170d83611508565b9150602083013567ffffffffffffffff81111561172957600080fd5b8301601f8101851361173a57600080fd5b6117498582356020840161167b565b9150509250929050565b6000806040838503121561176657600080fd5b61176f83611508565b91506020830135801515811461178457600080fd5b809150509250929050565b600080600080608085870312156117a557600080fd5b6117ae85611508565b93506117bc60208601611508565b925060408501359150606085013567ffffffffffffffff8111156117df57600080fd5b8501601f810187136117f057600080fd5b6117ff8782356020840161167b565b91505092959194509250565b6000806040838503121561181e57600080fd5b61182783611508565b915061183560208401611508565b90509250929050565b600181811c9082168061185257607f821691505b60208210810361187257634e487b7160e01b600052602260045260246000fd5b50919050565b6020808252602e908201527f4552433732313a2063616c6c6572206973206e6f7420746f6b656e206f776e6560408201526d1c881b9bdc88185c1c1c9bdd995960921b606082015260800190565b634e487b7160e01b600052603260045260246000fd5b634e487b7160e01b600052601160045260246000fd5b600060018201611904576119046118dc565b5060010190565b6000825161191d81846020870161148c565b9190910192915050565b6000835161193981846020880161148c565b83519083019061194d81836020880161148c565b01949350505050565b601f8211156104c157600081815260208120601f850160051c8101602086101561197d5750805b601f850160051c820191505b8181101561199c57828155600101611989565b505050505050565b815167ffffffffffffffff8111156119be576119be611665565b6119d2816119cc845461183e565b84611956565b602080601f831160018114611a0757600084156119ef5750858301515b600019600386901b1c1916600185901b17855561199c565b600085815260208120601f198616915b82811015611a3657888601518255948401946001909101908401611a17565b5085821015611a545787850151600019600388901b60f8161c191681555b5050505050600190811b01905550565b818103818111156102ed576102ed6118dc565b808201808211156102ed576102ed6118dc565b60208082526032908201527f4552433732313a207472616e7366657220746f206e6f6e20455243373231526560408201527131b2b4bb32b91034b6b83632b6b2b73a32b960711b606082015260800190565b6001600160a01b0385811682528416602082015260408101839052608060608201819052600090611b0f908301846114b0565b9695505050505050565b600060208284031215611b2b57600080fd5b815161107b81611459565b634e487b7160e01b600052601260045260246000fd5b600082611b5b57611b5b611b36565b500490565b600082611b6f57611b6f611b36565b50069056fea26469706673582212205470a2d576036a6037ff55e9be3231548a39bfaa30d57f767d2a6a95d6f6bd3564736f6c63430008110033",
  "linkReferences": {},
  "deployedLinkReferences": {}
}