{
  "_format": "hh-sol-artifact-1",
  "contractName": "AwardContract",
  "sourceName": "contracts/AwardContract.sol",
  "abi": [
    {
      "inputs": [
        {
          "internalType": "string",
          "name": "name",
          "type": "string"
        },
        {
          "internalType": "string",
          "name": "symbol",
          "type": "string"
        }
      ],
      "stateMutability": "nonpayable",
      "type": "constructor"
    },
    {
      "anonymous": false,
      "inputs": [
        {
          "indexed": true,
          "internalType": "address",
          "name": "owner",
          "type": "address"
        },
        {
          "indexed": true,
          "internalType": "address",
          "name": "approved",
          "type": "address"
        },
        {
          "indexed": true,
          "internalType": "uint256",
          "name": "tokenId",
          "type": "uint256"
        }
      ],
      "name": "Approval",
      "type": "event"
    },
    {
      "anonymous": false,
      "inputs": [
        {
          "indexed": true,
          "internalType": "address",
          "name": "owner",
          "type": "address"
        },
        {
          "indexed": true,
          "internalType": "address",
          "name": "operator",
          "type": "address"
        },
        {
          "indexed": false,
          "internalType": "bool",
          "name": "approved",
          "type": "bool"
        }
      ],
      "name": "ApprovalForAll",
      "type": "event"
    },
    {
      "anonymous": false,
      "inputs": [
        {
          "indexed": false,
          "internalType": "uint256",
          "name": "_fromTokenId",
          "type": "uint256"
        },
        {
          "indexed": false,
          "internalType": "uint256",
          "name": "_toTokenId",
          "type": "uint256"
        }
      ],
      "name": "BatchMetadataUpdate",
      "type": "event"
    },
    {
      "anonymous": false,
      "inputs": [
        {
          "indexed": false,
          "internalType": "uint256",
          "name": "_tokenId",
          "type": "uint256"
        }
      ],
      "name": "MetadataUpdate",
      "type": "event"
    },
    {
      "anonymous": false,
      "inputs": [
        {
          "indexed": true,
          "internalType": "address",
          "name": "from",
          "type": "address"
        },
        {
          "indexed": true,
          "internalType": "address",
          "name": "to",
          "type": "address"
        },
        {
          "indexed": true,
          "internalType": "uint256",
          "name": "tokenId",
          "type": "uint256"
        }
      ],
      "name": "Transfer",
      "type": "event"
    },
    {
      "inputs": [
        {
          "internalType": "address",
          "name": "to",
          "type": "address"
        },
        {
          "internalType": "uint256",
          "name": "tokenId",
          "type": "uint256"
        }
      ],
      "name": "approve",
      "outputs": [],
      "stateMutability": "nonpayable",
      "type": "function"
    },
    {
      "inputs": [
        {
          "internalType": "address",
          "name": "user",
          "type": "address"
        },
        {
          "internalType": "string",
          "name": "tokenURI",
          "type": "string"
        }
      ],
      "name": "awardItem",
      "outputs": [],
      "stateMutability": "nonpayable",
      "type": "function"
    },
    {
      "inputs": [
        {
          "internalType": "address",
          "name": "owner",
          "type": "address"
        }
      ],
      "name": "balanceOf",
      "outputs": [
        {
          "internalType": "uint256",
          "name": "",
          "type": "uint256"
        }
      ],
      "stateMutability": "view",
      "type": "function"
    },
    {
      "inputs": [
        {
          "internalType": "uint256",
          "name": "tokenId",
          "type": "uint256"
        }
      ],
      "name": "getApproved",
      "outputs": [
        {
          "internalType": "address",
          "name": "",
          "type": "address"
        }
      ],
      "stateMutability": "view",
      "type": "function"
    },
    {
      "inputs": [
        {
          "internalType": "address",
          "name": "user",
          "type": "address"
        }
      ],
      "name": "getAwardInformation",
      "outputs": [
        {
          "internalType": "uint256[]",
          "name": "",
          "type": "uint256[]"
        },
        {
          "internalType": "string[]",
          "name": "",
          "type": "string[]"
        },
        {
          "internalType": "uint256[]",
          "name": "",
          "type": "uint256[]"
        }
      ],
      "stateMutability": "view",
      "type": "function"
    },
    {
      "inputs": [
        {
          "internalType": "address",
          "name": "user",
          "type": "address"
        },
        {
          "internalType": "string",
          "name": "tokenURI",
          "type": "string"
        }
      ],
      "name": "getWhetherUserCanGetAward",
      "outputs": [
        {
          "internalType": "bool",
          "name": "",
          "type": "bool"
        }
      ],
      "stateMutability": "view",
      "type": "function"
    },
    {
      "inputs": [
        {
          "internalType": "address",
          "name": "owner",
          "type": "address"
        },
        {
          "internalType": "address",
          "name": "operator",
          "type": "address"
        }
      ],
      "name": "isApprovedForAll",
      "outputs": [
        {
          "internalType": "bool",
          "name": "",
          "type": "bool"
        }
      ],
      "stateMutability": "view",
      "type": "function"
    },
    {
      "inputs": [],
      "name": "name",
      "outputs": [
        {
          "internalType": "string",
          "name": "",
          "type": "string"
        }
      ],
      "stateMutability": "view",
      "type": "function"
    },
    {
      "inputs": [
        {
          "internalType": "uint256",
          "name": "tokenId",
          "type": "uint256"
        }
      ],
      "name": "ownerOf",
      "outputs": [
        {
          "internalType": "address",
          "name": "",
          "type": "address"
        }
      ],
      "stateMutability": "view",
      "type": "function"
    },
    {
      "inputs": [
        {
          "internalType": "address",
          "name": "from",
          "type": "address"
        },
        {
          "internalType": "address",
          "name": "to",
          "type": "address"
        },
        {
          "internalType": "uint256",
          "name": "tokenId",
          "type": "uint256"
        }
      ],
      "name": "safeTransferFrom",
      "outputs": [],
      "stateMutability": "nonpayable",
      "type": "function"
    },
    {
      "inputs": [
        {
          "internalType": "address",
          "name": "from",
          "type": "address"
        },
        {
          "internalType": "address",
          "name": "to",
          "type": "address"
        },
        {
          "internalType": "uint256",
          "name": "tokenId",
          "type": "uint256"
        },
        {
          "internalType": "bytes",
          "name": "data",
          "type": "bytes"
        }
      ],
      "name": "safeTransferFrom",
      "outputs": [],
      "stateMutability": "nonpayable",
      "type": "function"
    },
    {
      "inputs": [
        {
          "internalType": "address",
          "name": "operator",
          "type": "address"
        },
        {
          "internalType": "bool",
          "name": "approved",
          "type": "bool"
        }
      ],
      "name": "setApprovalForAll",
      "outputs": [],
      "stateMutability": "nonpayable",
      "type": "function"
    },
    {
      "inputs": [
        {
          "internalType": "bytes4",
          "name": "interfaceId",
          "type": "bytes4"
        }
      ],
      "name": "supportsInterface",
      "outputs": [
        {
          "internalType": "bool",
          "name": "",
          "type": "bool"
        }
      ],
      "stateMutability": "view",
      "type": "function"
    },
    {
      "inputs": [],
      "name": "symbol",
      "outputs": [
        {
          "internalType": "string",
          "name": "",
          "type": "string"
        }
      ],
      "stateMutability": "view",
      "type": "function"
    },
    {
      "inputs": [
        {
          "internalType": "uint256",
          "name": "tokenId",
          "type": "uint256"
        }
      ],
      "name": "tokenURI",
      "outputs": [
        {
          "internalType": "string",
          "name": "",
          "type": "string"
        }
      ],
      "stateMutability": "view",
      "type": "function"
    },
    {
      "inputs": [
        {
          "internalType": "address",
          "name": "from",
          "type": "address"
        },
        {
          "internalType": "address",
          "name": "to",
          "type": "address"
        },
        {
          "internalType": "uint256",
          "name": "tokenId",
          "type": "uint256"
        }
      ],
      "name": "transferFrom",
      "outputs": [],
      "stateMutability": "nonpayable",
      "type": "function"
    }
  ],
  "bytecode": "0x60806040523480156200001157600080fd5b5060405162001f6b38038062001f6b833981016040819052620000349162000136565b818160006200004483826200022f565b5060016200005382826200022f565b5050600880546001600160a01b0319163317905550620002fb915050565b634e487b7160e01b600052604160045260246000fd5b600082601f8301126200009957600080fd5b81516001600160401b0380821115620000b657620000b662000071565b604051601f8301601f19908116603f01168101908282118183101715620000e157620000e162000071565b81604052838152602092508683858801011115620000fe57600080fd5b600091505b8382101562000122578582018301518183018401529082019062000103565b600093810190920192909252949350505050565b600080604083850312156200014a57600080fd5b82516001600160401b03808211156200016257600080fd5b620001708683870162000087565b935060208501519150808211156200018757600080fd5b50620001968582860162000087565b9150509250929050565b600181811c90821680620001b557607f821691505b602082108103620001d657634e487b7160e01b600052602260045260246000fd5b50919050565b601f8211156200022a57600081815260208120601f850160051c81016020861015620002055750805b601f850160051c820191505b81811015620002265782815560010162000211565b5050505b505050565b81516001600160401b038111156200024b576200024b62000071565b62000263816200025c8454620001a0565b84620001dc565b602080601f8311600181146200029b5760008415620002825750858301515b600019600386901b1c1916600185901b17855562000226565b600085815260208120601f198616915b82811015620002cc57888601518255948401946001909101908401620002ab565b5085821015620002eb5787850151600019600388901b60f8161c191681555b5050505050600190811b01905550565b611c60806200030b6000396000f3fe608060405234801561001057600080fd5b50600436106101005760003560e01c806370a0823111610097578063b88d4fde11610066578063b88d4fde1461022c578063c87b56dd1461023f578063cf37834314610252578063e985e9c51461026557600080fd5b806370a08231146101dd57806395d89b41146101fe578063a12b1d3714610206578063a22cb4651461021957600080fd5b806323b872dd116100d357806323b872dd1461018257806342842e0e146101955780636352211e146101a857806364b8a6cf146101bb57600080fd5b806301ffc9a71461010557806306fdde031461012d578063081812fc14610142578063095ea7b31461016d575b600080fd5b61011861011336600461154d565b6102a1565b60405190151581526020015b60405180910390f35b6101356102cc565b60405161012491906115ba565b6101556101503660046115cd565b61035e565b6040516001600160a01b039091168152602001610124565b61018061017b366004611602565b610385565b005b61018061019036600461162c565b61049f565b6101806101a336600461162c565b6104d0565b6101556101b63660046115cd565b6104eb565b6101ce6101c9366004611668565b61054b565b604051610124939291906116be565b6101f06101eb366004611668565b61082a565b604051908152602001610124565b6101356108b0565b6101186102143660046117cf565b6108bf565b610180610227366004611831565b610904565b61018061023a36600461186d565b610913565b61013561024d3660046115cd565b61094b565b6101806102603660046117cf565b610a5b565b6101186102733660046118e9565b6001600160a01b03918216600090815260056020908152604080832093909416825291909152205460ff1690565b60006001600160e01b03198216632483248360e11b14806102c657506102c682610bfe565b92915050565b6060600080546102db9061191c565b80601f01602080910402602001604051908101604052809291908181526020018280546103079061191c565b80156103545780601f1061032957610100808354040283529160200191610354565b820191906000526020600020905b81548152906001019060200180831161033757829003601f168201915b5050505050905090565b600061036982610c4e565b506000908152600460205260409020546001600160a01b031690565b6000610390826104eb565b9050806001600160a01b0316836001600160a01b0316036104025760405162461bcd60e51b815260206004820152602160248201527f4552433732313a20617070726f76616c20746f2063757272656e74206f776e656044820152603960f91b60648201526084015b60405180910390fd5b336001600160a01b038216148061041e575061041e8133610273565b6104905760405162461bcd60e51b815260206004820152603d60248201527f4552433732313a20617070726f76652063616c6c6572206973206e6f7420746f60448201527f6b656e206f776e6572206f7220617070726f76656420666f7220616c6c00000060648201526084016103f9565b61049a8383610cb0565b505050565b6104a93382610d1e565b6104c55760405162461bcd60e51b81526004016103f990611956565b61049a838383610d9c565b61049a83838360405180602001604052806000815250610913565b6000818152600260205260408120546001600160a01b0316806102c65760405162461bcd60e51b8152602060048201526018602482015277115490cdcc8c4e881a5b9d985b1a59081d1bdad95b88125160421b60448201526064016103f9565b6001600160a01b0381166000908152600960209081526040808320805482518185028101850190935280835260609485948594919384939091849084015b828210156106615783829060005260206000209060030201604051806060016040529081600082015481526020016001820180546105c69061191c565b80601f01602080910402602001604051908101604052809291908181526020018280546105f29061191c565b801561063f5780601f106106145761010080835404028352916020019161063f565b820191906000526020600020905b81548152906001019060200180831161062257829003601f168201915b5050505050815260200160028201548152505081526020019060010190610589565b5050505090506000815167ffffffffffffffff81111561068357610683611743565b6040519080825280602002602001820160405280156106ac578160200160208202803683370190505b5090506000825167ffffffffffffffff8111156106cb576106cb611743565b6040519080825280602002602001820160405280156106fe57816020015b60608152602001906001900390816106e95790505b5090506000835167ffffffffffffffff81111561071d5761071d611743565b604051908082528060200260200182016040528015610746578160200160208202803683370190505b509050600094505b835185101561081b57838581518110610769576107696119a3565b602002602001015160000151838681518110610787576107876119a3565b6020026020010181815250508385815181106107a5576107a56119a3565b6020026020010151602001518286815181106107c3576107c36119a3565b60200260200101819052508385815181106107e0576107e06119a3565b6020026020010151604001518186815181106107fe576107fe6119a3565b602090810291909101015284610813816119b9565b95505061074e565b91989097509095509350505050565b60006001600160a01b0382166108945760405162461bcd60e51b815260206004820152602960248201527f4552433732313a2061646472657373207a65726f206973206e6f7420612076616044820152683634b21037bbb732b960b91b60648201526084016103f9565b506001600160a01b031660009081526003602052604090205490565b6060600180546102db9061191c565b6000600a826040516108d191906119e0565b908152604080519182900360209081019092206001600160a01b0386166000908152925290205460ff1615905092915050565b61090f338383610f00565b5050565b61091d3383610d1e565b6109395760405162461bcd60e51b81526004016103f990611956565b61094584848484610fce565b50505050565b606061095682610c4e565b6000828152600660205260408120805461096f9061191c565b80601f016020809104026020016040519081016040528092919081815260200182805461099b9061191c565b80156109e85780601f106109bd576101008083540402835291602001916109e8565b820191906000526020600020905b8154815290600101906020018083116109cb57829003601f168201915b505050505090506000610a0660408051602081019091526000815290565b90508051600003610a18575092915050565b815115610a4a578082604051602001610a329291906119fc565b60405160208183030381529060405292505050919050565b610a5384611001565b949350505050565b6008546001600160a01b03163314610aca5760405162461bcd60e51b815260206004820152602c60248201527fe58faae69c89e7b3bbe7bb9fe58fafe4bba5e8aebfe997aee6ada4e587bde69560448201526bb028617761726454696d652960a01b60648201526084016103f9565b600a81604051610ada91906119e0565b9081526040805160209281900383019020336000908152925290205460ff1615610b205760405162461bcd60e51b815260206004820152600060248201526044016103f9565b6001600a82604051610b3291906119e0565b90815260408051602092819003830190206001600160a01b038616600090815292528120805460ff1916921515929092179091556007549050610b758382611075565b610b7f8183611200565b610b8d600780546001019055565b60408051606081018252828152602080820185815242838501526001600160a01b038716600090815260098352938420805460018181018355918652929094208351600390930201918255519192839290820190610beb9082611a79565b5060408201518160020155505050505050565b60006001600160e01b031982166380ac58cd60e01b1480610c2f57506001600160e01b03198216635b5e139f60e01b145b806102c657506301ffc9a760e01b6001600160e01b03198316146102c6565b6000818152600260205260409020546001600160a01b0316610cad5760405162461bcd60e51b8152602060048201526018602482015277115490cdcc8c4e881a5b9d985b1a59081d1bdad95b88125160421b60448201526064016103f9565b50565b600081815260046020526040902080546001600160a01b0319166001600160a01b0384169081179091558190610ce5826104eb565b6001600160a01b03167f8c5be1e5ebec7d5bd14f71427d1e84f3dd0314c0f7b2291e5b200ac8c7c3b92560405160405180910390a45050565b600080610d2a836104eb565b9050806001600160a01b0316846001600160a01b03161480610d7157506001600160a01b0380821660009081526005602090815260408083209388168352929052205460ff165b80610a535750836001600160a01b0316610d8a8461035e565b6001600160a01b031614949350505050565b826001600160a01b0316610daf826104eb565b6001600160a01b031614610dd55760405162461bcd60e51b81526004016103f990611b39565b6001600160a01b038216610e375760405162461bcd60e51b8152602060048201526024808201527f4552433732313a207472616e7366657220746f20746865207a65726f206164646044820152637265737360e01b60648201526084016103f9565b826001600160a01b0316610e4a826104eb565b6001600160a01b031614610e705760405162461bcd60e51b81526004016103f990611b39565b600081815260046020908152604080832080546001600160a01b03199081169091556001600160a01b0387811680865260038552838620805460001901905590871680865283862080546001019055868652600290945282852080549092168417909155905184937fddf252ad1be2c89b69c2b068fc378daa952ba7f163c4a11628f55a4df523b3ef91a4505050565b816001600160a01b0316836001600160a01b031603610f615760405162461bcd60e51b815260206004820152601960248201527f4552433732313a20617070726f766520746f2063616c6c65720000000000000060448201526064016103f9565b6001600160a01b03838116600081815260056020908152604080832094871680845294825291829020805460ff191686151590811790915591519182527f17307eab39ab6107e8899845ad3d59bd9653f200f220920489ca2b5937696c31910160405180910390a3505050565b610fd9848484610d9c565b610fe5848484846112cb565b6109455760405162461bcd60e51b81526004016103f990611b7e565b606061100c82610c4e565b600061102360408051602081019091526000815290565b90506000815111611043576040518060200160405280600081525061106e565b8061104d846113cc565b60405160200161105e9291906119fc565b6040516020818303038152906040525b9392505050565b6001600160a01b0382166110cb5760405162461bcd60e51b815260206004820181905260248201527f4552433732313a206d696e7420746f20746865207a65726f206164647265737360448201526064016103f9565b6000818152600260205260409020546001600160a01b0316156111305760405162461bcd60e51b815260206004820152601c60248201527f4552433732313a20746f6b656e20616c7265616479206d696e7465640000000060448201526064016103f9565b6000818152600260205260409020546001600160a01b0316156111955760405162461bcd60e51b815260206004820152601c60248201527f4552433732313a20746f6b656e20616c7265616479206d696e7465640000000060448201526064016103f9565b6001600160a01b038216600081815260036020908152604080832080546001019055848352600290915280822080546001600160a01b0319168417905551839291907fddf252ad1be2c89b69c2b068fc378daa952ba7f163c4a11628f55a4df523b3ef908290a45050565b6000828152600260205260409020546001600160a01b031661127b5760405162461bcd60e51b815260206004820152602e60248201527f45524337323155524953746f726167653a2055524920736574206f66206e6f6e60448201526d32bc34b9ba32b73a103a37b5b2b760911b60648201526084016103f9565b60008281526006602052604090206112938282611a79565b506040518281527ff8e1a15aba9398e019f0b49df1a4fde98ee17ae345cb5f6b5e2c27f5033e8ce79060200160405180910390a15050565b60006001600160a01b0384163b156113c157604051630a85bd0160e11b81526001600160a01b0385169063150b7a029061130f903390899088908890600401611bd0565b6020604051808303816000875af192505050801561134a575060408051601f3d908101601f1916820190925261134791810190611c0d565b60015b6113a7573d808015611378576040519150601f19603f3d011682016040523d82523d6000602084013e61137d565b606091505b50805160000361139f5760405162461bcd60e51b81526004016103f990611b7e565b805181602001fd5b6001600160e01b031916630a85bd0160e11b149050610a53565b506001949350505050565b606060006113d98361145f565b600101905060008167ffffffffffffffff8111156113f9576113f9611743565b6040519080825280601f01601f191660200182016040528015611423576020820181803683370190505b5090508181016020015b600019016f181899199a1a9b1b9c1cb0b131b232b360811b600a86061a8153600a850494508461142d57509392505050565b60008072184f03e93ff9f4daa797ed6e38ed64bf6a1f0160401b831061149e5772184f03e93ff9f4daa797ed6e38ed64bf6a1f0160401b830492506040015b6d04ee2d6d415b85acef810000000083106114ca576d04ee2d6d415b85acef8100000000830492506020015b662386f26fc1000083106114e857662386f26fc10000830492506010015b6305f5e1008310611500576305f5e100830492506008015b612710831061151457612710830492506004015b60648310611526576064830492506002015b600a83106102c65760010192915050565b6001600160e01b031981168114610cad57600080fd5b60006020828403121561155f57600080fd5b813561106e81611537565b60005b8381101561158557818101518382015260200161156d565b50506000910152565b600081518084526115a681602086016020860161156a565b601f01601f19169290920160200192915050565b60208152600061106e602083018461158e565b6000602082840312156115df57600080fd5b5035919050565b80356001600160a01b03811681146115fd57600080fd5b919050565b6000806040838503121561161557600080fd5b61161e836115e6565b946020939093013593505050565b60008060006060848603121561164157600080fd5b61164a846115e6565b9250611658602085016115e6565b9150604084013590509250925092565b60006020828403121561167a57600080fd5b61106e826115e6565b600081518084526020808501945080840160005b838110156116b357815187529582019590820190600101611697565b509495945050505050565b6060815260006116d16060830186611683565b6020838203818501528186518084528284019150828160051b85010183890160005b8381101561172157601f1987840301855261170f83835161158e565b948601949250908501906001016116f3565b505086810360408801526117358189611683565b9a9950505050505050505050565b634e487b7160e01b600052604160045260246000fd5b600067ffffffffffffffff8084111561177457611774611743565b604051601f8501601f19908116603f0116810190828211818310171561179c5761179c611743565b816040528093508581528686860111156117b557600080fd5b858560208301376000602087830101525050509392505050565b600080604083850312156117e257600080fd5b6117eb836115e6565b9150602083013567ffffffffffffffff81111561180757600080fd5b8301601f8101851361181857600080fd5b61182785823560208401611759565b9150509250929050565b6000806040838503121561184457600080fd5b61184d836115e6565b91506020830135801515811461186257600080fd5b809150509250929050565b6000806000806080858703121561188357600080fd5b61188c856115e6565b935061189a602086016115e6565b925060408501359150606085013567ffffffffffffffff8111156118bd57600080fd5b8501601f810187136118ce57600080fd5b6118dd87823560208401611759565b91505092959194509250565b600080604083850312156118fc57600080fd5b611905836115e6565b9150611913602084016115e6565b90509250929050565b600181811c9082168061193057607f821691505b60208210810361195057634e487b7160e01b600052602260045260246000fd5b50919050565b6020808252602d908201527f4552433732313a2063616c6c6572206973206e6f7420746f6b656e206f776e6560408201526c1c881bdc88185c1c1c9bdd9959609a1b606082015260800190565b634e487b7160e01b600052603260045260246000fd5b6000600182016119d957634e487b7160e01b600052601160045260246000fd5b5060010190565b600082516119f281846020870161156a565b9190910192915050565b60008351611a0e81846020880161156a565b835190830190611a2281836020880161156a565b01949350505050565b601f82111561049a57600081815260208120601f850160051c81016020861015611a525750805b601f850160051c820191505b81811015611a7157828155600101611a5e565b505050505050565b815167ffffffffffffffff811115611a9357611a93611743565b611aa781611aa1845461191c565b84611a2b565b602080601f831160018114611adc5760008415611ac45750858301515b600019600386901b1c1916600185901b178555611a71565b600085815260208120601f198616915b82811015611b0b57888601518255948401946001909101908401611aec565b5085821015611b295787850151600019600388901b60f8161c191681555b5050505050600190811b01905550565b60208082526025908201527f4552433732313a207472616e736665722066726f6d20696e636f72726563742060408201526437bbb732b960d91b606082015260800190565b60208082526032908201527f4552433732313a207472616e7366657220746f206e6f6e20455243373231526560408201527131b2b4bb32b91034b6b83632b6b2b73a32b960711b606082015260800190565b6001600160a01b0385811682528416602082015260408101839052608060608201819052600090611c039083018461158e565b9695505050505050565b600060208284031215611c1f57600080fd5b815161106e8161153756fea264697066735822122007bdd6bf022022095ccc1c48fd61cc21ad3b42bca1e2c98811a74782f36fe60464736f6c63430008110033",
  "linkReferences": {},
  "deployedLinkReferences": {}
}